{
	"solidity-learning-lab/14_函数修改器.sol": {
		"FunctiionModifier": {
			"abi": [
				{
					"inputs": [],
					"name": "add",
					"outputs": [],
					"stateMutability": "nonpayable",
					"type": "function"
				},
				{
					"inputs": [],
					"name": "count",
					"outputs": [
						{
							"internalType": "uint256",
							"name": "",
							"type": "uint256"
						}
					],
					"stateMutability": "view",
					"type": "function"
				},
				{
					"inputs": [],
					"name": "flag",
					"outputs": [
						{
							"internalType": "bool",
							"name": "",
							"type": "bool"
						}
					],
					"stateMutability": "view",
					"type": "function"
				},
				{
					"inputs": [
						{
							"internalType": "bool",
							"name": "_flag",
							"type": "bool"
						}
					],
					"name": "setFlag",
					"outputs": [],
					"stateMutability": "nonpayable",
					"type": "function"
				},
				{
					"inputs": [],
					"name": "sub",
					"outputs": [],
					"stateMutability": "nonpayable",
					"type": "function"
				}
			],
			"devdoc": {
				"kind": "dev",
				"methods": {},
				"version": 1
			},
			"evm": {
				"assembly": "    /* \"solidity-learning-lab/14_\\xe5\\x87\\xbd\\xe6\\x95\\xb0\\xe4\\xbf\\xae\\xe6\\x94\\xb9\\xe5\\x99\\xa8.sol\":58:958  contract FunctiionModifier {... */\n  mstore(0x40, 0x80)\n  callvalue\n  dup1\n  iszero\n  tag_1\n  jumpi\n  revert(0x00, 0x00)\ntag_1:\n  pop\n  dataSize(sub_0)\n  dup1\n  dataOffset(sub_0)\n  0x00\n  codecopy\n  0x00\n  return\nstop\n\nsub_0: assembly {\n        /* \"solidity-learning-lab/14_\\xe5\\x87\\xbd\\xe6\\x95\\xb0\\xe4\\xbf\\xae\\xe6\\x94\\xb9\\xe5\\x99\\xa8.sol\":58:958  contract FunctiionModifier {... */\n      mstore(0x40, 0x80)\n      callvalue\n      dup1\n      iszero\n      tag_1\n      jumpi\n      revert(0x00, 0x00)\n    tag_1:\n      pop\n      jumpi(tag_2, lt(calldatasize, 0x04))\n      shr(0xe0, calldataload(0x00))\n      dup1\n      0x06661abd\n      eq\n      tag_3\n      jumpi\n      dup1\n      0x3927f6af\n      eq\n      tag_4\n      jumpi\n      dup1\n      0x4f2be91f\n      eq\n      tag_5\n      jumpi\n      dup1\n      0x890eba68\n      eq\n      tag_6\n      jumpi\n      dup1\n      0xc54124be\n      eq\n      tag_7\n      jumpi\n    tag_2:\n      revert(0x00, 0x00)\n        /* \"solidity-learning-lab/14_\\xe5\\x87\\xbd\\xe6\\x95\\xb0\\xe4\\xbf\\xae\\xe6\\x94\\xb9\\xe5\\x99\\xa8.sol\":113:133  uint256 public count */\n    tag_3:\n      tag_8\n      tag_9\n      jump\t// in\n    tag_8:\n      mload(0x40)\n      tag_10\n      swap2\n      swap1\n      tag_11\n      jump\t// in\n    tag_10:\n      mload(0x40)\n      dup1\n      swap2\n      sub\n      swap1\n      return\n        /* \"solidity-learning-lab/14_\\xe5\\x87\\xbd\\xe6\\x95\\xb0\\xe4\\xbf\\xae\\xe6\\x94\\xb9\\xe5\\x99\\xa8.sol\":140:207  function setFlag(bool _flag) external {... */\n    tag_4:\n      tag_12\n      0x04\n      dup1\n      calldatasize\n      sub\n      dup2\n      add\n      swap1\n      tag_13\n      swap2\n      swap1\n      tag_14\n      jump\t// in\n    tag_13:\n      tag_15\n      jump\t// in\n    tag_12:\n      stop\n        /* \"solidity-learning-lab/14_\\xe5\\x87\\xbd\\xe6\\x95\\xb0\\xe4\\xbf\\xae\\xe6\\x94\\xb9\\xe5\\x99\\xa8.sol\":213:312  function add() external whenNoFlag {... */\n    tag_5:\n      tag_16\n      tag_17\n      jump\t// in\n    tag_16:\n      stop\n        /* \"solidity-learning-lab/14_\\xe5\\x87\\xbd\\xe6\\x95\\xb0\\xe4\\xbf\\xae\\xe6\\x94\\xb9\\xe5\\x99\\xa8.sol\":91:107  bool public flag */\n    tag_6:\n      tag_18\n      tag_19\n      jump\t// in\n    tag_18:\n      mload(0x40)\n      tag_20\n      swap2\n      swap1\n      tag_21\n      jump\t// in\n    tag_20:\n      mload(0x40)\n      dup1\n      swap2\n      sub\n      swap1\n      return\n        /* \"solidity-learning-lab/14_\\xe5\\x87\\xbd\\xe6\\x95\\xb0\\xe4\\xbf\\xae\\xe6\\x94\\xb9\\xe5\\x99\\xa8.sol\":318:417  function sub() external whenNoFlag {... */\n    tag_7:\n      tag_22\n      tag_23\n      jump\t// in\n    tag_22:\n      stop\n        /* \"solidity-learning-lab/14_\\xe5\\x87\\xbd\\xe6\\x95\\xb0\\xe4\\xbf\\xae\\xe6\\x94\\xb9\\xe5\\x99\\xa8.sol\":113:133  uint256 public count */\n    tag_9:\n      sload(0x01)\n      dup2\n      jump\t// out\n        /* \"solidity-learning-lab/14_\\xe5\\x87\\xbd\\xe6\\x95\\xb0\\xe4\\xbf\\xae\\xe6\\x94\\xb9\\xe5\\x99\\xa8.sol\":140:207  function setFlag(bool _flag) external {... */\n    tag_15:\n        /* \"solidity-learning-lab/14_\\xe5\\x87\\xbd\\xe6\\x95\\xb0\\xe4\\xbf\\xae\\xe6\\x94\\xb9\\xe5\\x99\\xa8.sol\":195:200  _flag */\n      dup1\n        /* \"solidity-learning-lab/14_\\xe5\\x87\\xbd\\xe6\\x95\\xb0\\xe4\\xbf\\xae\\xe6\\x94\\xb9\\xe5\\x99\\xa8.sol\":188:192  flag */\n      0x00\n      0x00\n        /* \"solidity-learning-lab/14_\\xe5\\x87\\xbd\\xe6\\x95\\xb0\\xe4\\xbf\\xae\\xe6\\x94\\xb9\\xe5\\x99\\xa8.sol\":188:200  flag = _flag */\n      0x0100\n      exp\n      dup2\n      sload\n      dup2\n      0xff\n      mul\n      not\n      and\n      swap1\n      dup4\n      iszero\n      iszero\n      mul\n      or\n      swap1\n      sstore\n      pop\n        /* \"solidity-learning-lab/14_\\xe5\\x87\\xbd\\xe6\\x95\\xb0\\xe4\\xbf\\xae\\xe6\\x94\\xb9\\xe5\\x99\\xa8.sol\":140:207  function setFlag(bool _flag) external {... */\n      pop\n      jump\t// out\n        /* \"solidity-learning-lab/14_\\xe5\\x87\\xbd\\xe6\\x95\\xb0\\xe4\\xbf\\xae\\xe6\\x94\\xb9\\xe5\\x99\\xa8.sol\":213:312  function add() external whenNoFlag {... */\n    tag_17:\n        /* \"solidity-learning-lab/14_\\xe5\\x87\\xbd\\xe6\\x95\\xb0\\xe4\\xbf\\xae\\xe6\\x94\\xb9\\xe5\\x99\\xa8.sol\":923:927  flag */\n      0x00\n      0x00\n      swap1\n      sload\n      swap1\n      0x0100\n      exp\n      swap1\n      div\n      0xff\n      and\n        /* \"solidity-learning-lab/14_\\xe5\\x87\\xbd\\xe6\\x95\\xb0\\xe4\\xbf\\xae\\xe6\\x94\\xb9\\xe5\\x99\\xa8.sol\":922:927  !flag */\n      iszero\n        /* \"solidity-learning-lab/14_\\xe5\\x87\\xbd\\xe6\\x95\\xb0\\xe4\\xbf\\xae\\xe6\\x94\\xb9\\xe5\\x99\\xa8.sol\":914:938  require(!flag, \"paused\") */\n      tag_26\n      jumpi\n      mload(0x40)\n      0x08c379a000000000000000000000000000000000000000000000000000000000\n      dup2\n      mstore\n      0x04\n      add\n      tag_27\n      swap1\n      tag_28\n      jump\t// in\n    tag_27:\n      mload(0x40)\n      dup1\n      swap2\n      sub\n      swap1\n      revert\n    tag_26:\n        /* \"solidity-learning-lab/14_\\xe5\\x87\\xbd\\xe6\\x95\\xb0\\xe4\\xbf\\xae\\xe6\\x94\\xb9\\xe5\\x99\\xa8.sol\":304:305  1 */\n      0x01\n        /* \"solidity-learning-lab/14_\\xe5\\x87\\xbd\\xe6\\x95\\xb0\\xe4\\xbf\\xae\\xe6\\x94\\xb9\\xe5\\x99\\xa8.sol\":295:300  count */\n      dup1\n      0x00\n        /* \"solidity-learning-lab/14_\\xe5\\x87\\xbd\\xe6\\x95\\xb0\\xe4\\xbf\\xae\\xe6\\x94\\xb9\\xe5\\x99\\xa8.sol\":295:305  count += 1 */\n      dup3\n      dup3\n      sload\n      tag_30\n      swap2\n      swap1\n      tag_31\n      jump\t// in\n    tag_30:\n      swap3\n      pop\n      pop\n      dup2\n      swap1\n      sstore\n      pop\n        /* \"solidity-learning-lab/14_\\xe5\\x87\\xbd\\xe6\\x95\\xb0\\xe4\\xbf\\xae\\xe6\\x94\\xb9\\xe5\\x99\\xa8.sol\":213:312  function add() external whenNoFlag {... */\n      jump\t// out\n        /* \"solidity-learning-lab/14_\\xe5\\x87\\xbd\\xe6\\x95\\xb0\\xe4\\xbf\\xae\\xe6\\x94\\xb9\\xe5\\x99\\xa8.sol\":91:107  bool public flag */\n    tag_19:\n      0x00\n      0x00\n      swap1\n      sload\n      swap1\n      0x0100\n      exp\n      swap1\n      div\n      0xff\n      and\n      dup2\n      jump\t// out\n        /* \"solidity-learning-lab/14_\\xe5\\x87\\xbd\\xe6\\x95\\xb0\\xe4\\xbf\\xae\\xe6\\x94\\xb9\\xe5\\x99\\xa8.sol\":318:417  function sub() external whenNoFlag {... */\n    tag_23:\n        /* \"solidity-learning-lab/14_\\xe5\\x87\\xbd\\xe6\\x95\\xb0\\xe4\\xbf\\xae\\xe6\\x94\\xb9\\xe5\\x99\\xa8.sol\":923:927  flag */\n      0x00\n      0x00\n      swap1\n      sload\n      swap1\n      0x0100\n      exp\n      swap1\n      div\n      0xff\n      and\n        /* \"solidity-learning-lab/14_\\xe5\\x87\\xbd\\xe6\\x95\\xb0\\xe4\\xbf\\xae\\xe6\\x94\\xb9\\xe5\\x99\\xa8.sol\":922:927  !flag */\n      iszero\n        /* \"solidity-learning-lab/14_\\xe5\\x87\\xbd\\xe6\\x95\\xb0\\xe4\\xbf\\xae\\xe6\\x94\\xb9\\xe5\\x99\\xa8.sol\":914:938  require(!flag, \"paused\") */\n      tag_33\n      jumpi\n      mload(0x40)\n      0x08c379a000000000000000000000000000000000000000000000000000000000\n      dup2\n      mstore\n      0x04\n      add\n      tag_34\n      swap1\n      tag_28\n      jump\t// in\n    tag_34:\n      mload(0x40)\n      dup1\n      swap2\n      sub\n      swap1\n      revert\n    tag_33:\n        /* \"solidity-learning-lab/14_\\xe5\\x87\\xbd\\xe6\\x95\\xb0\\xe4\\xbf\\xae\\xe6\\x94\\xb9\\xe5\\x99\\xa8.sol\":409:410  1 */\n      0x01\n        /* \"solidity-learning-lab/14_\\xe5\\x87\\xbd\\xe6\\x95\\xb0\\xe4\\xbf\\xae\\xe6\\x94\\xb9\\xe5\\x99\\xa8.sol\":400:405  count */\n      dup1\n      0x00\n        /* \"solidity-learning-lab/14_\\xe5\\x87\\xbd\\xe6\\x95\\xb0\\xe4\\xbf\\xae\\xe6\\x94\\xb9\\xe5\\x99\\xa8.sol\":400:410  count -= 1 */\n      dup3\n      dup3\n      sload\n      tag_36\n      swap2\n      swap1\n      tag_37\n      jump\t// in\n    tag_36:\n      swap3\n      pop\n      pop\n      dup2\n      swap1\n      sstore\n      pop\n        /* \"solidity-learning-lab/14_\\xe5\\x87\\xbd\\xe6\\x95\\xb0\\xe4\\xbf\\xae\\xe6\\x94\\xb9\\xe5\\x99\\xa8.sol\":318:417  function sub() external whenNoFlag {... */\n      jump\t// out\n        /* \"#utility.yul\":7:84   */\n    tag_38:\n        /* \"#utility.yul\":44:51   */\n      0x00\n        /* \"#utility.yul\":73:78   */\n      dup2\n        /* \"#utility.yul\":62:78   */\n      swap1\n      pop\n        /* \"#utility.yul\":7:84   */\n      swap2\n      swap1\n      pop\n      jump\t// out\n        /* \"#utility.yul\":90:208   */\n    tag_39:\n        /* \"#utility.yul\":177:201   */\n      tag_54\n        /* \"#utility.yul\":195:200   */\n      dup2\n        /* \"#utility.yul\":177:201   */\n      tag_38\n      jump\t// in\n    tag_54:\n        /* \"#utility.yul\":172:175   */\n      dup3\n        /* \"#utility.yul\":165:202   */\n      mstore\n        /* \"#utility.yul\":90:208   */\n      pop\n      pop\n      jump\t// out\n        /* \"#utility.yul\":214:436   */\n    tag_11:\n        /* \"#utility.yul\":307:311   */\n      0x00\n        /* \"#utility.yul\":345:347   */\n      0x20\n        /* \"#utility.yul\":334:343   */\n      dup3\n        /* \"#utility.yul\":330:348   */\n      add\n        /* \"#utility.yul\":322:348   */\n      swap1\n      pop\n        /* \"#utility.yul\":358:429   */\n      tag_56\n        /* \"#utility.yul\":426:427   */\n      0x00\n        /* \"#utility.yul\":415:424   */\n      dup4\n        /* \"#utility.yul\":411:428   */\n      add\n        /* \"#utility.yul\":402:408   */\n      dup5\n        /* \"#utility.yul\":358:429   */\n      tag_39\n      jump\t// in\n    tag_56:\n        /* \"#utility.yul\":214:436   */\n      swap3\n      swap2\n      pop\n      pop\n      jump\t// out\n        /* \"#utility.yul\":523:640   */\n    tag_41:\n        /* \"#utility.yul\":632:633   */\n      0x00\n        /* \"#utility.yul\":629:630   */\n      0x00\n        /* \"#utility.yul\":622:634   */\n      revert\n        /* \"#utility.yul\":769:859   */\n    tag_43:\n        /* \"#utility.yul\":803:810   */\n      0x00\n        /* \"#utility.yul\":846:851   */\n      dup2\n        /* \"#utility.yul\":839:852   */\n      iszero\n        /* \"#utility.yul\":832:853   */\n      iszero\n        /* \"#utility.yul\":821:853   */\n      swap1\n      pop\n        /* \"#utility.yul\":769:859   */\n      swap2\n      swap1\n      pop\n      jump\t// out\n        /* \"#utility.yul\":865:981   */\n    tag_44:\n        /* \"#utility.yul\":935:956   */\n      tag_62\n        /* \"#utility.yul\":950:955   */\n      dup2\n        /* \"#utility.yul\":935:956   */\n      tag_43\n      jump\t// in\n    tag_62:\n        /* \"#utility.yul\":928:933   */\n      dup2\n        /* \"#utility.yul\":925:957   */\n      eq\n        /* \"#utility.yul\":915:975   */\n      tag_63\n      jumpi\n        /* \"#utility.yul\":971:972   */\n      0x00\n        /* \"#utility.yul\":968:969   */\n      0x00\n        /* \"#utility.yul\":961:973   */\n      revert\n        /* \"#utility.yul\":915:975   */\n    tag_63:\n        /* \"#utility.yul\":865:981   */\n      pop\n      jump\t// out\n        /* \"#utility.yul\":987:1120   */\n    tag_45:\n        /* \"#utility.yul\":1030:1035   */\n      0x00\n        /* \"#utility.yul\":1068:1074   */\n      dup2\n        /* \"#utility.yul\":1055:1075   */\n      calldataload\n        /* \"#utility.yul\":1046:1075   */\n      swap1\n      pop\n        /* \"#utility.yul\":1084:1114   */\n      tag_65\n        /* \"#utility.yul\":1108:1113   */\n      dup2\n        /* \"#utility.yul\":1084:1114   */\n      tag_44\n      jump\t// in\n    tag_65:\n        /* \"#utility.yul\":987:1120   */\n      swap3\n      swap2\n      pop\n      pop\n      jump\t// out\n        /* \"#utility.yul\":1126:1449   */\n    tag_14:\n        /* \"#utility.yul\":1182:1188   */\n      0x00\n        /* \"#utility.yul\":1231:1233   */\n      0x20\n        /* \"#utility.yul\":1219:1228   */\n      dup3\n        /* \"#utility.yul\":1210:1217   */\n      dup5\n        /* \"#utility.yul\":1206:1229   */\n      sub\n        /* \"#utility.yul\":1202:1234   */\n      slt\n        /* \"#utility.yul\":1199:1318   */\n      iszero\n      tag_67\n      jumpi\n        /* \"#utility.yul\":1237:1316   */\n      tag_68\n      tag_41\n      jump\t// in\n    tag_68:\n        /* \"#utility.yul\":1199:1318   */\n    tag_67:\n        /* \"#utility.yul\":1357:1358   */\n      0x00\n        /* \"#utility.yul\":1382:1432   */\n      tag_69\n        /* \"#utility.yul\":1424:1431   */\n      dup5\n        /* \"#utility.yul\":1415:1421   */\n      dup3\n        /* \"#utility.yul\":1404:1413   */\n      dup6\n        /* \"#utility.yul\":1400:1422   */\n      add\n        /* \"#utility.yul\":1382:1432   */\n      tag_45\n      jump\t// in\n    tag_69:\n        /* \"#utility.yul\":1372:1432   */\n      swap2\n      pop\n        /* \"#utility.yul\":1328:1442   */\n      pop\n        /* \"#utility.yul\":1126:1449   */\n      swap3\n      swap2\n      pop\n      pop\n      jump\t// out\n        /* \"#utility.yul\":1455:1564   */\n    tag_46:\n        /* \"#utility.yul\":1536:1557   */\n      tag_71\n        /* \"#utility.yul\":1551:1556   */\n      dup2\n        /* \"#utility.yul\":1536:1557   */\n      tag_43\n      jump\t// in\n    tag_71:\n        /* \"#utility.yul\":1531:1534   */\n      dup3\n        /* \"#utility.yul\":1524:1558   */\n      mstore\n        /* \"#utility.yul\":1455:1564   */\n      pop\n      pop\n      jump\t// out\n        /* \"#utility.yul\":1570:1780   */\n    tag_21:\n        /* \"#utility.yul\":1657:1661   */\n      0x00\n        /* \"#utility.yul\":1695:1697   */\n      0x20\n        /* \"#utility.yul\":1684:1693   */\n      dup3\n        /* \"#utility.yul\":1680:1698   */\n      add\n        /* \"#utility.yul\":1672:1698   */\n      swap1\n      pop\n        /* \"#utility.yul\":1708:1773   */\n      tag_73\n        /* \"#utility.yul\":1770:1771   */\n      0x00\n        /* \"#utility.yul\":1759:1768   */\n      dup4\n        /* \"#utility.yul\":1755:1772   */\n      add\n        /* \"#utility.yul\":1746:1752   */\n      dup5\n        /* \"#utility.yul\":1708:1773   */\n      tag_46\n      jump\t// in\n    tag_73:\n        /* \"#utility.yul\":1570:1780   */\n      swap3\n      swap2\n      pop\n      pop\n      jump\t// out\n        /* \"#utility.yul\":1786:1955   */\n    tag_47:\n        /* \"#utility.yul\":1870:1881   */\n      0x00\n        /* \"#utility.yul\":1904:1910   */\n      dup3\n        /* \"#utility.yul\":1899:1902   */\n      dup3\n        /* \"#utility.yul\":1892:1911   */\n      mstore\n        /* \"#utility.yul\":1944:1948   */\n      0x20\n        /* \"#utility.yul\":1939:1942   */\n      dup3\n        /* \"#utility.yul\":1935:1949   */\n      add\n        /* \"#utility.yul\":1920:1949   */\n      swap1\n      pop\n        /* \"#utility.yul\":1786:1955   */\n      swap3\n      swap2\n      pop\n      pop\n      jump\t// out\n        /* \"#utility.yul\":1961:2117   */\n    tag_48:\n        /* \"#utility.yul\":2101:2109   */\n      0x7061757365640000000000000000000000000000000000000000000000000000\n        /* \"#utility.yul\":2097:2098   */\n      0x00\n        /* \"#utility.yul\":2089:2095   */\n      dup3\n        /* \"#utility.yul\":2085:2099   */\n      add\n        /* \"#utility.yul\":2078:2110   */\n      mstore\n        /* \"#utility.yul\":1961:2117   */\n      pop\n      jump\t// out\n        /* \"#utility.yul\":2123:2488   */\n    tag_49:\n        /* \"#utility.yul\":2265:2268   */\n      0x00\n        /* \"#utility.yul\":2286:2352   */\n      tag_77\n        /* \"#utility.yul\":2350:2351   */\n      0x06\n        /* \"#utility.yul\":2345:2348   */\n      dup4\n        /* \"#utility.yul\":2286:2352   */\n      tag_47\n      jump\t// in\n    tag_77:\n        /* \"#utility.yul\":2279:2352   */\n      swap2\n      pop\n        /* \"#utility.yul\":2361:2454   */\n      tag_78\n        /* \"#utility.yul\":2450:2453   */\n      dup3\n        /* \"#utility.yul\":2361:2454   */\n      tag_48\n      jump\t// in\n    tag_78:\n        /* \"#utility.yul\":2479:2481   */\n      0x20\n        /* \"#utility.yul\":2474:2477   */\n      dup3\n        /* \"#utility.yul\":2470:2482   */\n      add\n        /* \"#utility.yul\":2463:2482   */\n      swap1\n      pop\n        /* \"#utility.yul\":2123:2488   */\n      swap2\n      swap1\n      pop\n      jump\t// out\n        /* \"#utility.yul\":2494:2913   */\n    tag_28:\n        /* \"#utility.yul\":2660:2664   */\n      0x00\n        /* \"#utility.yul\":2698:2700   */\n      0x20\n        /* \"#utility.yul\":2687:2696   */\n      dup3\n        /* \"#utility.yul\":2683:2701   */\n      add\n        /* \"#utility.yul\":2675:2701   */\n      swap1\n      pop\n        /* \"#utility.yul\":2747:2756   */\n      dup2\n        /* \"#utility.yul\":2741:2745   */\n      dup2\n        /* \"#utility.yul\":2737:2757   */\n      sub\n        /* \"#utility.yul\":2733:2734   */\n      0x00\n        /* \"#utility.yul\":2722:2731   */\n      dup4\n        /* \"#utility.yul\":2718:2735   */\n      add\n        /* \"#utility.yul\":2711:2758   */\n      mstore\n        /* \"#utility.yul\":2775:2906   */\n      tag_80\n        /* \"#utility.yul\":2901:2905   */\n      dup2\n        /* \"#utility.yul\":2775:2906   */\n      tag_49\n      jump\t// in\n    tag_80:\n        /* \"#utility.yul\":2767:2906   */\n      swap1\n      pop\n        /* \"#utility.yul\":2494:2913   */\n      swap2\n      swap1\n      pop\n      jump\t// out\n        /* \"#utility.yul\":2919:3099   */\n    tag_50:\n        /* \"#utility.yul\":2967:3044   */\n      0x4e487b7100000000000000000000000000000000000000000000000000000000\n        /* \"#utility.yul\":2964:2965   */\n      0x00\n        /* \"#utility.yul\":2957:3045   */\n      mstore\n        /* \"#utility.yul\":3064:3068   */\n      0x11\n        /* \"#utility.yul\":3061:3062   */\n      0x04\n        /* \"#utility.yul\":3054:3069   */\n      mstore\n        /* \"#utility.yul\":3088:3092   */\n      0x24\n        /* \"#utility.yul\":3085:3086   */\n      0x00\n        /* \"#utility.yul\":3078:3093   */\n      revert\n        /* \"#utility.yul\":3105:3296   */\n    tag_31:\n        /* \"#utility.yul\":3145:3148   */\n      0x00\n        /* \"#utility.yul\":3164:3184   */\n      tag_83\n        /* \"#utility.yul\":3182:3183   */\n      dup3\n        /* \"#utility.yul\":3164:3184   */\n      tag_38\n      jump\t// in\n    tag_83:\n        /* \"#utility.yul\":3159:3184   */\n      swap2\n      pop\n        /* \"#utility.yul\":3198:3218   */\n      tag_84\n        /* \"#utility.yul\":3216:3217   */\n      dup4\n        /* \"#utility.yul\":3198:3218   */\n      tag_38\n      jump\t// in\n    tag_84:\n        /* \"#utility.yul\":3193:3218   */\n      swap3\n      pop\n        /* \"#utility.yul\":3241:3242   */\n      dup3\n        /* \"#utility.yul\":3238:3239   */\n      dup3\n        /* \"#utility.yul\":3234:3243   */\n      add\n        /* \"#utility.yul\":3227:3243   */\n      swap1\n      pop\n        /* \"#utility.yul\":3262:3265   */\n      dup1\n        /* \"#utility.yul\":3259:3260   */\n      dup3\n        /* \"#utility.yul\":3256:3266   */\n      gt\n        /* \"#utility.yul\":3253:3289   */\n      iszero\n      tag_85\n      jumpi\n        /* \"#utility.yul\":3269:3287   */\n      tag_86\n      tag_50\n      jump\t// in\n    tag_86:\n        /* \"#utility.yul\":3253:3289   */\n    tag_85:\n        /* \"#utility.yul\":3105:3296   */\n      swap3\n      swap2\n      pop\n      pop\n      jump\t// out\n        /* \"#utility.yul\":3302:3496   */\n    tag_37:\n        /* \"#utility.yul\":3342:3346   */\n      0x00\n        /* \"#utility.yul\":3362:3382   */\n      tag_88\n        /* \"#utility.yul\":3380:3381   */\n      dup3\n        /* \"#utility.yul\":3362:3382   */\n      tag_38\n      jump\t// in\n    tag_88:\n        /* \"#utility.yul\":3357:3382   */\n      swap2\n      pop\n        /* \"#utility.yul\":3396:3416   */\n      tag_89\n        /* \"#utility.yul\":3414:3415   */\n      dup4\n        /* \"#utility.yul\":3396:3416   */\n      tag_38\n      jump\t// in\n    tag_89:\n        /* \"#utility.yul\":3391:3416   */\n      swap3\n      pop\n        /* \"#utility.yul\":3440:3441   */\n      dup3\n        /* \"#utility.yul\":3437:3438   */\n      dup3\n        /* \"#utility.yul\":3433:3442   */\n      sub\n        /* \"#utility.yul\":3425:3442   */\n      swap1\n      pop\n        /* \"#utility.yul\":3464:3465   */\n      dup2\n        /* \"#utility.yul\":3458:3462   */\n      dup2\n        /* \"#utility.yul\":3455:3466   */\n      gt\n        /* \"#utility.yul\":3452:3489   */\n      iszero\n      tag_90\n      jumpi\n        /* \"#utility.yul\":3469:3487   */\n      tag_91\n      tag_50\n      jump\t// in\n    tag_91:\n        /* \"#utility.yul\":3452:3489   */\n    tag_90:\n        /* \"#utility.yul\":3302:3496   */\n      swap3\n      swap2\n      pop\n      pop\n      jump\t// out\n\n    auxdata: 0xa2646970667358221220f9ac2228e36bf42060e3e3b3dbcd5f0a2ceb76a0c3236d280debab214e3f153264736f6c634300081e0033\n}\n",
				"bytecode": {
					"linkReferences": {},
					"object": "6080604052348015600e575f5ffd5b506103c58061001c5f395ff3fe608060405234801561000f575f5ffd5b5060043610610055575f3560e01c806306661abd146100595780633927f6af146100775780634f2be91f14610093578063890eba681461009d578063c54124be146100bb575b5f5ffd5b6100616100c5565b60405161006e91906101df565b60405180910390f35b610091600480360381019061008c9190610231565b6100cb565b005b61009b6100e6565b005b6100a561014e565b6040516100b2919061026b565b60405180910390f35b6100c361015f565b005b60015481565b805f5f6101000a81548160ff02191690831515021790555050565b5f5f9054906101000a900460ff1615610134576040517f08c379a000000000000000000000000000000000000000000000000000000000815260040161012b906102de565b60405180910390fd5b6001805f8282546101459190610329565b92505081905550565b5f5f9054906101000a900460ff1681565b5f5f9054906101000a900460ff16156101ad576040517f08c379a00000000000000000000000000000000000000000000000000000000081526004016101a4906102de565b60405180910390fd5b6001805f8282546101be919061035c565b92505081905550565b5f819050919050565b6101d9816101c7565b82525050565b5f6020820190506101f25f8301846101d0565b92915050565b5f5ffd5b5f8115159050919050565b610210816101fc565b811461021a575f5ffd5b50565b5f8135905061022b81610207565b92915050565b5f60208284031215610246576102456101f8565b5b5f6102538482850161021d565b91505092915050565b610265816101fc565b82525050565b5f60208201905061027e5f83018461025c565b92915050565b5f82825260208201905092915050565b7f70617573656400000000000000000000000000000000000000000000000000005f82015250565b5f6102c8600683610284565b91506102d382610294565b602082019050919050565b5f6020820190508181035f8301526102f5816102bc565b9050919050565b7f4e487b71000000000000000000000000000000000000000000000000000000005f52601160045260245ffd5b5f610333826101c7565b915061033e836101c7565b9250828201905080821115610356576103556102fc565b5b92915050565b5f610366826101c7565b9150610371836101c7565b9250828203905081811115610389576103886102fc565b5b9291505056fea2646970667358221220f9ac2228e36bf42060e3e3b3dbcd5f0a2ceb76a0c3236d280debab214e3f153264736f6c634300081e0033",
					"opcodes": "PUSH1 0x80 PUSH1 0x40 MSTORE CALLVALUE DUP1 ISZERO PUSH1 0xE JUMPI PUSH0 PUSH0 REVERT JUMPDEST POP PUSH2 0x3C5 DUP1 PUSH2 0x1C PUSH0 CODECOPY PUSH0 RETURN INVALID PUSH1 0x80 PUSH1 0x40 MSTORE CALLVALUE DUP1 ISZERO PUSH2 0xF JUMPI PUSH0 PUSH0 REVERT JUMPDEST POP PUSH1 0x4 CALLDATASIZE LT PUSH2 0x55 JUMPI PUSH0 CALLDATALOAD PUSH1 0xE0 SHR DUP1 PUSH4 0x6661ABD EQ PUSH2 0x59 JUMPI DUP1 PUSH4 0x3927F6AF EQ PUSH2 0x77 JUMPI DUP1 PUSH4 0x4F2BE91F EQ PUSH2 0x93 JUMPI DUP1 PUSH4 0x890EBA68 EQ PUSH2 0x9D JUMPI DUP1 PUSH4 0xC54124BE EQ PUSH2 0xBB JUMPI JUMPDEST PUSH0 PUSH0 REVERT JUMPDEST PUSH2 0x61 PUSH2 0xC5 JUMP JUMPDEST PUSH1 0x40 MLOAD PUSH2 0x6E SWAP2 SWAP1 PUSH2 0x1DF JUMP JUMPDEST PUSH1 0x40 MLOAD DUP1 SWAP2 SUB SWAP1 RETURN JUMPDEST PUSH2 0x91 PUSH1 0x4 DUP1 CALLDATASIZE SUB DUP2 ADD SWAP1 PUSH2 0x8C SWAP2 SWAP1 PUSH2 0x231 JUMP JUMPDEST PUSH2 0xCB JUMP JUMPDEST STOP JUMPDEST PUSH2 0x9B PUSH2 0xE6 JUMP JUMPDEST STOP JUMPDEST PUSH2 0xA5 PUSH2 0x14E JUMP JUMPDEST PUSH1 0x40 MLOAD PUSH2 0xB2 SWAP2 SWAP1 PUSH2 0x26B JUMP JUMPDEST PUSH1 0x40 MLOAD DUP1 SWAP2 SUB SWAP1 RETURN JUMPDEST PUSH2 0xC3 PUSH2 0x15F JUMP JUMPDEST STOP JUMPDEST PUSH1 0x1 SLOAD DUP2 JUMP JUMPDEST DUP1 PUSH0 PUSH0 PUSH2 0x100 EXP DUP2 SLOAD DUP2 PUSH1 0xFF MUL NOT AND SWAP1 DUP4 ISZERO ISZERO MUL OR SWAP1 SSTORE POP POP JUMP JUMPDEST PUSH0 PUSH0 SWAP1 SLOAD SWAP1 PUSH2 0x100 EXP SWAP1 DIV PUSH1 0xFF AND ISZERO PUSH2 0x134 JUMPI PUSH1 0x40 MLOAD PUSH32 0x8C379A000000000000000000000000000000000000000000000000000000000 DUP2 MSTORE PUSH1 0x4 ADD PUSH2 0x12B SWAP1 PUSH2 0x2DE JUMP JUMPDEST PUSH1 0x40 MLOAD DUP1 SWAP2 SUB SWAP1 REVERT JUMPDEST PUSH1 0x1 DUP1 PUSH0 DUP3 DUP3 SLOAD PUSH2 0x145 SWAP2 SWAP1 PUSH2 0x329 JUMP JUMPDEST SWAP3 POP POP DUP2 SWAP1 SSTORE POP JUMP JUMPDEST PUSH0 PUSH0 SWAP1 SLOAD SWAP1 PUSH2 0x100 EXP SWAP1 DIV PUSH1 0xFF AND DUP2 JUMP JUMPDEST PUSH0 PUSH0 SWAP1 SLOAD SWAP1 PUSH2 0x100 EXP SWAP1 DIV PUSH1 0xFF AND ISZERO PUSH2 0x1AD JUMPI PUSH1 0x40 MLOAD PUSH32 0x8C379A000000000000000000000000000000000000000000000000000000000 DUP2 MSTORE PUSH1 0x4 ADD PUSH2 0x1A4 SWAP1 PUSH2 0x2DE JUMP JUMPDEST PUSH1 0x40 MLOAD DUP1 SWAP2 SUB SWAP1 REVERT JUMPDEST PUSH1 0x1 DUP1 PUSH0 DUP3 DUP3 SLOAD PUSH2 0x1BE SWAP2 SWAP1 PUSH2 0x35C JUMP JUMPDEST SWAP3 POP POP DUP2 SWAP1 SSTORE POP JUMP JUMPDEST PUSH0 DUP2 SWAP1 POP SWAP2 SWAP1 POP JUMP JUMPDEST PUSH2 0x1D9 DUP2 PUSH2 0x1C7 JUMP JUMPDEST DUP3 MSTORE POP POP JUMP JUMPDEST PUSH0 PUSH1 0x20 DUP3 ADD SWAP1 POP PUSH2 0x1F2 PUSH0 DUP4 ADD DUP5 PUSH2 0x1D0 JUMP JUMPDEST SWAP3 SWAP2 POP POP JUMP JUMPDEST PUSH0 PUSH0 REVERT JUMPDEST PUSH0 DUP2 ISZERO ISZERO SWAP1 POP SWAP2 SWAP1 POP JUMP JUMPDEST PUSH2 0x210 DUP2 PUSH2 0x1FC JUMP JUMPDEST DUP2 EQ PUSH2 0x21A JUMPI PUSH0 PUSH0 REVERT JUMPDEST POP JUMP JUMPDEST PUSH0 DUP2 CALLDATALOAD SWAP1 POP PUSH2 0x22B DUP2 PUSH2 0x207 JUMP JUMPDEST SWAP3 SWAP2 POP POP JUMP JUMPDEST PUSH0 PUSH1 0x20 DUP3 DUP5 SUB SLT ISZERO PUSH2 0x246 JUMPI PUSH2 0x245 PUSH2 0x1F8 JUMP JUMPDEST JUMPDEST PUSH0 PUSH2 0x253 DUP5 DUP3 DUP6 ADD PUSH2 0x21D JUMP JUMPDEST SWAP2 POP POP SWAP3 SWAP2 POP POP JUMP JUMPDEST PUSH2 0x265 DUP2 PUSH2 0x1FC JUMP JUMPDEST DUP3 MSTORE POP POP JUMP JUMPDEST PUSH0 PUSH1 0x20 DUP3 ADD SWAP1 POP PUSH2 0x27E PUSH0 DUP4 ADD DUP5 PUSH2 0x25C JUMP JUMPDEST SWAP3 SWAP2 POP POP JUMP JUMPDEST PUSH0 DUP3 DUP3 MSTORE PUSH1 0x20 DUP3 ADD SWAP1 POP SWAP3 SWAP2 POP POP JUMP JUMPDEST PUSH32 0x7061757365640000000000000000000000000000000000000000000000000000 PUSH0 DUP3 ADD MSTORE POP JUMP JUMPDEST PUSH0 PUSH2 0x2C8 PUSH1 0x6 DUP4 PUSH2 0x284 JUMP JUMPDEST SWAP2 POP PUSH2 0x2D3 DUP3 PUSH2 0x294 JUMP JUMPDEST PUSH1 0x20 DUP3 ADD SWAP1 POP SWAP2 SWAP1 POP JUMP JUMPDEST PUSH0 PUSH1 0x20 DUP3 ADD SWAP1 POP DUP2 DUP2 SUB PUSH0 DUP4 ADD MSTORE PUSH2 0x2F5 DUP2 PUSH2 0x2BC JUMP JUMPDEST SWAP1 POP SWAP2 SWAP1 POP JUMP JUMPDEST PUSH32 0x4E487B7100000000000000000000000000000000000000000000000000000000 PUSH0 MSTORE PUSH1 0x11 PUSH1 0x4 MSTORE PUSH1 0x24 PUSH0 REVERT JUMPDEST PUSH0 PUSH2 0x333 DUP3 PUSH2 0x1C7 JUMP JUMPDEST SWAP2 POP PUSH2 0x33E DUP4 PUSH2 0x1C7 JUMP JUMPDEST SWAP3 POP DUP3 DUP3 ADD SWAP1 POP DUP1 DUP3 GT ISZERO PUSH2 0x356 JUMPI PUSH2 0x355 PUSH2 0x2FC JUMP JUMPDEST JUMPDEST SWAP3 SWAP2 POP POP JUMP JUMPDEST PUSH0 PUSH2 0x366 DUP3 PUSH2 0x1C7 JUMP JUMPDEST SWAP2 POP PUSH2 0x371 DUP4 PUSH2 0x1C7 JUMP JUMPDEST SWAP3 POP DUP3 DUP3 SUB SWAP1 POP DUP2 DUP2 GT ISZERO PUSH2 0x389 JUMPI PUSH2 0x388 PUSH2 0x2FC JUMP JUMPDEST JUMPDEST SWAP3 SWAP2 POP POP JUMP INVALID LOG2 PUSH5 0x6970667358 0x22 SLT KECCAK256 EXTDELEGATECALL 0xAC 0x22 0x28 CALLF 0x6BF4 KECCAK256 PUSH1 0xE3 CALLF 0xB3DB 0xCD PUSH0 EXP 0x2C 0xEB PUSH23 0xA0C3236D280DEBAB214E3F153264736F6C634300081E00 CALLER "
				},
				"gasEstimates": {
					"creation": {
						"codeDepositCost": "193000",
						"executionCost": "236",
						"totalCost": "193236"
					},
					"external": {
						"add()": "infinite",
						"count()": "2403",
						"flag()": "2509",
						"setFlag(bool)": "24672",
						"sub()": "infinite"
					}
				},
				"methodIdentifiers": {
					"add()": "4f2be91f",
					"count()": "06661abd",
					"flag()": "890eba68",
					"setFlag(bool)": "3927f6af",
					"sub()": "c54124be"
				}
			},
			"storageLayout": {
				"storage": [
					{
						"astId": 3,
						"contract": "solidity-learning-lab/14_函数修改器.sol:FunctiionModifier",
						"label": "flag",
						"offset": 0,
						"slot": "0",
						"type": "t_bool"
					},
					{
						"astId": 5,
						"contract": "solidity-learning-lab/14_函数修改器.sol:FunctiionModifier",
						"label": "count",
						"offset": 0,
						"slot": "1",
						"type": "t_uint256"
					}
				],
				"types": {
					"t_bool": {
						"encoding": "inplace",
						"label": "bool",
						"numberOfBytes": "1"
					},
					"t_uint256": {
						"encoding": "inplace",
						"label": "uint256",
						"numberOfBytes": "32"
					}
				}
			},
			"userdoc": {
				"kind": "user",
				"methods": {},
				"version": 1
			}
		}
	}
}