{
	"solidity-learning-lab/25_调用父级合约函数.sol": {
		"A": {
			"abi": [
				{
					"inputs": [],
					"name": "bar",
					"outputs": [],
					"stateMutability": "pure",
					"type": "function"
				}
			],
			"devdoc": {
				"kind": "dev",
				"methods": {},
				"version": 1
			},
			"evm": {
				"assembly": "    /* \"solidity-learning-lab/25_\\xe8\\xb0\\x83\\xe7\\x94\\xa8\\xe7\\x88\\xb6\\xe7\\xba\\xa7\\xe5\\x90\\x88\\xe7\\xba\\xa6\\xe5\\x87\\xbd\\xe6\\x95\\xb0.sol\":58:106  contract A {... */\n  mstore(0x40, 0x80)\n  callvalue\n  dup1\n  iszero\n  tag_1\n  jumpi\n  revert(0x00, 0x00)\ntag_1:\n  pop\n  dataSize(sub_0)\n  dup1\n  dataOffset(sub_0)\n  0x00\n  codecopy\n  0x00\n  return\nstop\n\nsub_0: assembly {\n        /* \"solidity-learning-lab/25_\\xe8\\xb0\\x83\\xe7\\x94\\xa8\\xe7\\x88\\xb6\\xe7\\xba\\xa7\\xe5\\x90\\x88\\xe7\\xba\\xa6\\xe5\\x87\\xbd\\xe6\\x95\\xb0.sol\":58:106  contract A {... */\n      mstore(0x40, 0x80)\n      callvalue\n      dup1\n      iszero\n      tag_1\n      jumpi\n      revert(0x00, 0x00)\n    tag_1:\n      pop\n      jumpi(tag_2, lt(calldatasize, 0x04))\n      shr(0xe0, calldataload(0x00))\n      dup1\n      0xfebb0f7e\n      eq\n      tag_3\n      jumpi\n    tag_2:\n      revert(0x00, 0x00)\n        /* \"solidity-learning-lab/25_\\xe8\\xb0\\x83\\xe7\\x94\\xa8\\xe7\\x88\\xb6\\xe7\\xba\\xa7\\xe5\\x90\\x88\\xe7\\xba\\xa6\\xe5\\x87\\xbd\\xe6\\x95\\xb0.sol\":75:104  function bar() public pure {} */\n    tag_3:\n      tag_4\n      tag_5\n      jump\t// in\n    tag_4:\n      stop\n    tag_5:\n      jump\t// out\n\n    auxdata: 0xa264697066735822122054b4a54d76fb4ae72ea7a97e28b6e21dd246d4c21ccdc798aef7ebed34ddb66b64736f6c634300081e0033\n}\n",
				"bytecode": {
					"linkReferences": {},
					"object": "6080604052348015600e575f5ffd5b50606a80601a5f395ff3fe6080604052348015600e575f5ffd5b50600436106026575f3560e01c8063febb0f7e14602a575b5f5ffd5b60306032565b005b56fea264697066735822122054b4a54d76fb4ae72ea7a97e28b6e21dd246d4c21ccdc798aef7ebed34ddb66b64736f6c634300081e0033",
					"opcodes": "PUSH1 0x80 PUSH1 0x40 MSTORE CALLVALUE DUP1 ISZERO PUSH1 0xE JUMPI PUSH0 PUSH0 REVERT JUMPDEST POP PUSH1 0x6A DUP1 PUSH1 0x1A PUSH0 CODECOPY PUSH0 RETURN INVALID PUSH1 0x80 PUSH1 0x40 MSTORE CALLVALUE DUP1 ISZERO PUSH1 0xE JUMPI PUSH0 PUSH0 REVERT JUMPDEST POP PUSH1 0x4 CALLDATASIZE LT PUSH1 0x26 JUMPI PUSH0 CALLDATALOAD PUSH1 0xE0 SHR DUP1 PUSH4 0xFEBB0F7E EQ PUSH1 0x2A JUMPI JUMPDEST PUSH0 PUSH0 REVERT JUMPDEST PUSH1 0x30 PUSH1 0x32 JUMP JUMPDEST STOP JUMPDEST JUMP INVALID LOG2 PUSH5 0x6970667358 0x22 SLT KECCAK256 SLOAD 0xB4 0xA5 0x4D PUSH23 0xFB4AE72EA7A97E28B6E21DD246D4C21CCDC798AEF7EBED CALLVALUE 0xDD 0xB6 PUSH12 0x64736F6C634300081E003300 "
				},
				"gasEstimates": {
					"creation": {
						"codeDepositCost": "21200",
						"executionCost": "73",
						"totalCost": "21273"
					},
					"external": {
						"bar()": "121"
					}
				},
				"methodIdentifiers": {
					"bar()": "febb0f7e"
				}
			},
			"storageLayout": {
				"storage": [],
				"types": null
			},
			"userdoc": {
				"kind": "user",
				"methods": {},
				"version": 1
			}
		}
	}
}