{
	"solidity-learning-lab/21_枚举.sol": {
		"Enum": {
			"abi": [
				{
					"inputs": [],
					"name": "getStatus",
					"outputs": [
						{
							"internalType": "enum Enum.Status",
							"name": "",
							"type": "uint8"
						}
					],
					"stateMutability": "view",
					"type": "function"
				},
				{
					"inputs": [],
					"name": "getStatusName",
					"outputs": [
						{
							"internalType": "string",
							"name": "",
							"type": "string"
						}
					],
					"stateMutability": "view",
					"type": "function"
				},
				{
					"inputs": [
						{
							"internalType": "enum Enum.Status",
							"name": "_status",
							"type": "uint8"
						}
					],
					"name": "setStatus",
					"outputs": [],
					"stateMutability": "nonpayable",
					"type": "function"
				},
				{
					"inputs": [],
					"name": "status",
					"outputs": [
						{
							"internalType": "enum Enum.Status",
							"name": "",
							"type": "uint8"
						}
					],
					"stateMutability": "view",
					"type": "function"
				}
			],
			"devdoc": {
				"kind": "dev",
				"methods": {},
				"version": 1
			},
			"evm": {
				"assembly": "    /* \"solidity-learning-lab/21_\\xe6\\x9e\\x9a\\xe4\\xb8\\xbe.sol\":58:891  contract Enum {... */\n  mstore(0x40, 0x80)\n  callvalue\n  dup1\n  iszero\n  tag_1\n  jumpi\n  revert(0x00, 0x00)\ntag_1:\n  pop\n  dataSize(sub_0)\n  dup1\n  dataOffset(sub_0)\n  0x00\n  codecopy\n  0x00\n  return\nstop\n\nsub_0: assembly {\n        /* \"solidity-learning-lab/21_\\xe6\\x9e\\x9a\\xe4\\xb8\\xbe.sol\":58:891  contract Enum {... */\n      mstore(0x40, 0x80)\n      callvalue\n      dup1\n      iszero\n      tag_1\n      jumpi\n      revert(0x00, 0x00)\n    tag_1:\n      pop\n      jumpi(tag_2, lt(calldatasize, 0x04))\n      shr(0xe0, calldataload(0x00))\n      dup1\n      0x200d2ed2\n      eq\n      tag_3\n      jumpi\n      dup1\n      0x2e49d78b\n      eq\n      tag_4\n      jumpi\n      dup1\n      0x4e69d560\n      eq\n      tag_5\n      jumpi\n      dup1\n      0x95389225\n      eq\n      tag_6\n      jumpi\n    tag_2:\n      revert(0x00, 0x00)\n        /* \"solidity-learning-lab/21_\\xe6\\x9e\\x9a\\xe4\\xb8\\xbe.sol\":228:248  Status public status */\n    tag_3:\n      tag_7\n      tag_8\n      jump\t// in\n    tag_7:\n      mload(0x40)\n      tag_9\n      swap2\n      swap1\n      tag_10\n      jump\t// in\n    tag_9:\n      mload(0x40)\n      dup1\n      swap2\n      sub\n      swap1\n      return\n        /* \"solidity-learning-lab/21_\\xe6\\x9e\\x9a\\xe4\\xb8\\xbe.sol\":420:495  function setStatus(Status _status) public {... */\n    tag_4:\n      tag_11\n      0x04\n      dup1\n      calldatasize\n      sub\n      dup2\n      add\n      swap1\n      tag_12\n      swap2\n      swap1\n      tag_13\n      jump\t// in\n    tag_12:\n      tag_14\n      jump\t// in\n    tag_11:\n      stop\n        /* \"solidity-learning-lab/21_\\xe6\\x9e\\x9a\\xe4\\xb8\\xbe.sol\":296:376  function getStatus() public view returns (Status) {... */\n    tag_5:\n      tag_15\n      tag_16\n      jump\t// in\n    tag_15:\n      mload(0x40)\n      tag_17\n      swap2\n      swap1\n      tag_10\n      jump\t// in\n    tag_17:\n      mload(0x40)\n      dup1\n      swap2\n      sub\n      swap1\n      return\n        /* \"solidity-learning-lab/21_\\xe6\\x9e\\x9a\\xe4\\xb8\\xbe.sol\":542:889  function getStatusName() public view returns (string memory) {... */\n    tag_6:\n      tag_18\n      tag_19\n      jump\t// in\n    tag_18:\n      mload(0x40)\n      tag_20\n      swap2\n      swap1\n      tag_21\n      jump\t// in\n    tag_20:\n      mload(0x40)\n      dup1\n      swap2\n      sub\n      swap1\n      return\n        /* \"solidity-learning-lab/21_\\xe6\\x9e\\x9a\\xe4\\xb8\\xbe.sol\":228:248  Status public status */\n    tag_8:\n      0x00\n      0x00\n      swap1\n      sload\n      swap1\n      0x0100\n      exp\n      swap1\n      div\n      0xff\n      and\n      dup2\n      jump\t// out\n        /* \"solidity-learning-lab/21_\\xe6\\x9e\\x9a\\xe4\\xb8\\xbe.sol\":420:495  function setStatus(Status _status) public {... */\n    tag_14:\n        /* \"solidity-learning-lab/21_\\xe6\\x9e\\x9a\\xe4\\xb8\\xbe.sol\":481:488  _status */\n      dup1\n        /* \"solidity-learning-lab/21_\\xe6\\x9e\\x9a\\xe4\\xb8\\xbe.sol\":472:478  status */\n      0x00\n      0x00\n        /* \"solidity-learning-lab/21_\\xe6\\x9e\\x9a\\xe4\\xb8\\xbe.sol\":472:488  status = _status */\n      0x0100\n      exp\n      dup2\n      sload\n      dup2\n      0xff\n      mul\n      not\n      and\n      swap1\n      dup4\n      0x02\n      dup2\n      gt\n      iszero\n      tag_23\n      jumpi\n      tag_24\n      tag_25\n      jump\t// in\n    tag_24:\n    tag_23:\n      mul\n      or\n      swap1\n      sstore\n      pop\n        /* \"solidity-learning-lab/21_\\xe6\\x9e\\x9a\\xe4\\xb8\\xbe.sol\":420:495  function setStatus(Status _status) public {... */\n      pop\n      jump\t// out\n        /* \"solidity-learning-lab/21_\\xe6\\x9e\\x9a\\xe4\\xb8\\xbe.sol\":296:376  function getStatus() public view returns (Status) {... */\n    tag_16:\n        /* \"solidity-learning-lab/21_\\xe6\\x9e\\x9a\\xe4\\xb8\\xbe.sol\":338:344  Status */\n      0x00\n        /* \"solidity-learning-lab/21_\\xe6\\x9e\\x9a\\xe4\\xb8\\xbe.sol\":363:369  status */\n      0x00\n      0x00\n      swap1\n      sload\n      swap1\n      0x0100\n      exp\n      swap1\n      div\n      0xff\n      and\n        /* \"solidity-learning-lab/21_\\xe6\\x9e\\x9a\\xe4\\xb8\\xbe.sol\":356:369  return status */\n      swap1\n      pop\n        /* \"solidity-learning-lab/21_\\xe6\\x9e\\x9a\\xe4\\xb8\\xbe.sol\":296:376  function getStatus() public view returns (Status) {... */\n      swap1\n      jump\t// out\n        /* \"solidity-learning-lab/21_\\xe6\\x9e\\x9a\\xe4\\xb8\\xbe.sol\":542:889  function getStatusName() public view returns (string memory) {... */\n    tag_19:\n        /* \"solidity-learning-lab/21_\\xe6\\x9e\\x9a\\xe4\\xb8\\xbe.sol\":588:601  string memory */\n      0x60\n        /* \"solidity-learning-lab/21_\\xe6\\x9e\\x9a\\xe4\\xb8\\xbe.sol\":627:638  Status.None */\n      0x00\n        /* \"solidity-learning-lab/21_\\xe6\\x9e\\x9a\\xe4\\xb8\\xbe.sol\":617:638  status == Status.None */\n      0x02\n      dup2\n      gt\n      iszero\n      tag_28\n      jumpi\n      tag_29\n      tag_25\n      jump\t// in\n    tag_29:\n    tag_28:\n        /* \"solidity-learning-lab/21_\\xe6\\x9e\\x9a\\xe4\\xb8\\xbe.sol\":617:623  status */\n      0x00\n      0x00\n      swap1\n      sload\n      swap1\n      0x0100\n      exp\n      swap1\n      div\n      0xff\n      and\n        /* \"solidity-learning-lab/21_\\xe6\\x9e\\x9a\\xe4\\xb8\\xbe.sol\":617:638  status == Status.None */\n      0x02\n      dup2\n      gt\n      iszero\n      tag_30\n      jumpi\n      tag_31\n      tag_25\n      jump\t// in\n    tag_31:\n    tag_30:\n      sub\n        /* \"solidity-learning-lab/21_\\xe6\\x9e\\x9a\\xe4\\xb8\\xbe.sol\":613:883  if (status == Status.None) {... */\n      tag_32\n      jumpi\n        /* \"solidity-learning-lab/21_\\xe6\\x9e\\x9a\\xe4\\xb8\\xbe.sol\":654:667  return \"None\" */\n      mload(0x40)\n      dup1\n      0x40\n      add\n      0x40\n      mstore\n      dup1\n      0x04\n      dup2\n      mstore\n      0x20\n      add\n      0x4e6f6e6500000000000000000000000000000000000000000000000000000000\n      dup2\n      mstore\n      pop\n      swap1\n      pop\n      jump(tag_27)\n        /* \"solidity-learning-lab/21_\\xe6\\x9e\\x9a\\xe4\\xb8\\xbe.sol\":613:883  if (status == Status.None) {... */\n    tag_32:\n        /* \"solidity-learning-lab/21_\\xe6\\x9e\\x9a\\xe4\\xb8\\xbe.sol\":698:712  Status.Pending */\n      0x01\n        /* \"solidity-learning-lab/21_\\xe6\\x9e\\x9a\\xe4\\xb8\\xbe.sol\":688:712  status == Status.Pending */\n      0x02\n      dup2\n      gt\n      iszero\n      tag_34\n      jumpi\n      tag_35\n      tag_25\n      jump\t// in\n    tag_35:\n    tag_34:\n        /* \"solidity-learning-lab/21_\\xe6\\x9e\\x9a\\xe4\\xb8\\xbe.sol\":688:694  status */\n      0x00\n      0x00\n      swap1\n      sload\n      swap1\n      0x0100\n      exp\n      swap1\n      div\n      0xff\n      and\n        /* \"solidity-learning-lab/21_\\xe6\\x9e\\x9a\\xe4\\xb8\\xbe.sol\":688:712  status == Status.Pending */\n      0x02\n      dup2\n      gt\n      iszero\n      tag_36\n      jumpi\n      tag_37\n      tag_25\n      jump\t// in\n    tag_37:\n    tag_36:\n      sub\n        /* \"solidity-learning-lab/21_\\xe6\\x9e\\x9a\\xe4\\xb8\\xbe.sol\":684:883  if (status == Status.Pending) {... */\n      tag_38\n      jumpi\n        /* \"solidity-learning-lab/21_\\xe6\\x9e\\x9a\\xe4\\xb8\\xbe.sol\":728:744  return \"Pending\" */\n      mload(0x40)\n      dup1\n      0x40\n      add\n      0x40\n      mstore\n      dup1\n      0x07\n      dup2\n      mstore\n      0x20\n      add\n      0x50656e64696e6700000000000000000000000000000000000000000000000000\n      dup2\n      mstore\n      pop\n      swap1\n      pop\n      jump(tag_27)\n        /* \"solidity-learning-lab/21_\\xe6\\x9e\\x9a\\xe4\\xb8\\xbe.sol\":684:883  if (status == Status.Pending) {... */\n    tag_38:\n        /* \"solidity-learning-lab/21_\\xe6\\x9e\\x9a\\xe4\\xb8\\xbe.sol\":775:791  Status.Completed */\n      0x02\n        /* \"solidity-learning-lab/21_\\xe6\\x9e\\x9a\\xe4\\xb8\\xbe.sol\":765:791  status == Status.Completed */\n      dup1\n      dup2\n      gt\n      iszero\n      tag_40\n      jumpi\n      tag_41\n      tag_25\n      jump\t// in\n    tag_41:\n    tag_40:\n        /* \"solidity-learning-lab/21_\\xe6\\x9e\\x9a\\xe4\\xb8\\xbe.sol\":765:771  status */\n      0x00\n      0x00\n      swap1\n      sload\n      swap1\n      0x0100\n      exp\n      swap1\n      div\n      0xff\n      and\n        /* \"solidity-learning-lab/21_\\xe6\\x9e\\x9a\\xe4\\xb8\\xbe.sol\":765:791  status == Status.Completed */\n      0x02\n      dup2\n      gt\n      iszero\n      tag_42\n      jumpi\n      tag_43\n      tag_25\n      jump\t// in\n    tag_43:\n    tag_42:\n      sub\n        /* \"solidity-learning-lab/21_\\xe6\\x9e\\x9a\\xe4\\xb8\\xbe.sol\":761:883  if (status == Status.Completed) {... */\n      tag_44\n      jumpi\n        /* \"solidity-learning-lab/21_\\xe6\\x9e\\x9a\\xe4\\xb8\\xbe.sol\":807:825  return \"Completed\" */\n      mload(0x40)\n      dup1\n      0x40\n      add\n      0x40\n      mstore\n      dup1\n      0x09\n      dup2\n      mstore\n      0x20\n      add\n      0x436f6d706c657465640000000000000000000000000000000000000000000000\n      dup2\n      mstore\n      pop\n      swap1\n      pop\n      jump(tag_27)\n        /* \"solidity-learning-lab/21_\\xe6\\x9e\\x9a\\xe4\\xb8\\xbe.sol\":761:883  if (status == Status.Completed) {... */\n    tag_44:\n        /* \"solidity-learning-lab/21_\\xe6\\x9e\\x9a\\xe4\\xb8\\xbe.sol\":856:872  return \"Unknown\" */\n      mload(0x40)\n      dup1\n      0x40\n      add\n      0x40\n      mstore\n      dup1\n      0x07\n      dup2\n      mstore\n      0x20\n      add\n      0x556e6b6e6f776e00000000000000000000000000000000000000000000000000\n      dup2\n      mstore\n      pop\n      swap1\n      pop\n        /* \"solidity-learning-lab/21_\\xe6\\x9e\\x9a\\xe4\\xb8\\xbe.sol\":542:889  function getStatusName() public view returns (string memory) {... */\n    tag_27:\n      swap1\n      jump\t// out\n        /* \"#utility.yul\":7:187   */\n    tag_25:\n        /* \"#utility.yul\":55:132   */\n      0x4e487b7100000000000000000000000000000000000000000000000000000000\n        /* \"#utility.yul\":52:53   */\n      0x00\n        /* \"#utility.yul\":45:133   */\n      mstore\n        /* \"#utility.yul\":152:156   */\n      0x21\n        /* \"#utility.yul\":149:150   */\n      0x04\n        /* \"#utility.yul\":142:157   */\n      mstore\n        /* \"#utility.yul\":176:180   */\n      0x24\n        /* \"#utility.yul\":173:174   */\n      0x00\n        /* \"#utility.yul\":166:181   */\n      revert\n        /* \"#utility.yul\":193:306   */\n    tag_46:\n        /* \"#utility.yul\":274:275   */\n      0x03\n        /* \"#utility.yul\":267:272   */\n      dup2\n        /* \"#utility.yul\":264:276   */\n      lt\n        /* \"#utility.yul\":254:300   */\n      tag_63\n      jumpi\n        /* \"#utility.yul\":280:298   */\n      tag_64\n      tag_25\n      jump\t// in\n    tag_64:\n        /* \"#utility.yul\":254:300   */\n    tag_63:\n        /* \"#utility.yul\":193:306   */\n      pop\n      jump\t// out\n        /* \"#utility.yul\":312:439   */\n    tag_47:\n        /* \"#utility.yul\":357:364   */\n      0x00\n        /* \"#utility.yul\":386:391   */\n      dup2\n        /* \"#utility.yul\":375:391   */\n      swap1\n      pop\n        /* \"#utility.yul\":392:433   */\n      tag_66\n        /* \"#utility.yul\":427:432   */\n      dup3\n        /* \"#utility.yul\":392:433   */\n      tag_46\n      jump\t// in\n    tag_66:\n        /* \"#utility.yul\":312:439   */\n      swap2\n      swap1\n      pop\n      jump\t// out\n        /* \"#utility.yul\":445:572   */\n    tag_48:\n        /* \"#utility.yul\":501:510   */\n      0x00\n        /* \"#utility.yul\":534:566   */\n      tag_68\n        /* \"#utility.yul\":560:565   */\n      dup3\n        /* \"#utility.yul\":534:566   */\n      tag_47\n      jump\t// in\n    tag_68:\n        /* \"#utility.yul\":521:566   */\n      swap1\n      pop\n        /* \"#utility.yul\":445:572   */\n      swap2\n      swap1\n      pop\n      jump\t// out\n        /* \"#utility.yul\":578:721   */\n    tag_49:\n        /* \"#utility.yul\":671:714   */\n      tag_70\n        /* \"#utility.yul\":708:713   */\n      dup2\n        /* \"#utility.yul\":671:714   */\n      tag_48\n      jump\t// in\n    tag_70:\n        /* \"#utility.yul\":666:669   */\n      dup3\n        /* \"#utility.yul\":659:715   */\n      mstore\n        /* \"#utility.yul\":578:721   */\n      pop\n      pop\n      jump\t// out\n        /* \"#utility.yul\":727:961   */\n    tag_10:\n        /* \"#utility.yul\":826:830   */\n      0x00\n        /* \"#utility.yul\":864:866   */\n      0x20\n        /* \"#utility.yul\":853:862   */\n      dup3\n        /* \"#utility.yul\":849:867   */\n      add\n        /* \"#utility.yul\":841:867   */\n      swap1\n      pop\n        /* \"#utility.yul\":877:954   */\n      tag_72\n        /* \"#utility.yul\":951:952   */\n      0x00\n        /* \"#utility.yul\":940:949   */\n      dup4\n        /* \"#utility.yul\":936:953   */\n      add\n        /* \"#utility.yul\":927:933   */\n      dup5\n        /* \"#utility.yul\":877:954   */\n      tag_49\n      jump\t// in\n    tag_72:\n        /* \"#utility.yul\":727:961   */\n      swap3\n      swap2\n      pop\n      pop\n      jump\t// out\n        /* \"#utility.yul\":1048:1165   */\n    tag_51:\n        /* \"#utility.yul\":1157:1158   */\n      0x00\n        /* \"#utility.yul\":1154:1155   */\n      0x00\n        /* \"#utility.yul\":1147:1159   */\n      revert\n        /* \"#utility.yul\":1294:1401   */\n    tag_53:\n        /* \"#utility.yul\":1375:1376   */\n      0x03\n        /* \"#utility.yul\":1368:1373   */\n      dup2\n        /* \"#utility.yul\":1365:1377   */\n      lt\n        /* \"#utility.yul\":1355:1395   */\n      tag_77\n      jumpi\n        /* \"#utility.yul\":1391:1392   */\n      0x00\n        /* \"#utility.yul\":1388:1389   */\n      0x00\n        /* \"#utility.yul\":1381:1393   */\n      revert\n        /* \"#utility.yul\":1355:1395   */\n    tag_77:\n        /* \"#utility.yul\":1294:1401   */\n      pop\n      jump\t// out\n        /* \"#utility.yul\":1407:1562   */\n    tag_54:\n        /* \"#utility.yul\":1461:1466   */\n      0x00\n        /* \"#utility.yul\":1499:1505   */\n      dup2\n        /* \"#utility.yul\":1486:1506   */\n      calldataload\n        /* \"#utility.yul\":1477:1506   */\n      swap1\n      pop\n        /* \"#utility.yul\":1515:1556   */\n      tag_79\n        /* \"#utility.yul\":1550:1555   */\n      dup2\n        /* \"#utility.yul\":1515:1556   */\n      tag_53\n      jump\t// in\n    tag_79:\n        /* \"#utility.yul\":1407:1562   */\n      swap3\n      swap2\n      pop\n      pop\n      jump\t// out\n        /* \"#utility.yul\":1568:1913   */\n    tag_13:\n        /* \"#utility.yul\":1635:1641   */\n      0x00\n        /* \"#utility.yul\":1684:1686   */\n      0x20\n        /* \"#utility.yul\":1672:1681   */\n      dup3\n        /* \"#utility.yul\":1663:1670   */\n      dup5\n        /* \"#utility.yul\":1659:1682   */\n      sub\n        /* \"#utility.yul\":1655:1687   */\n      slt\n        /* \"#utility.yul\":1652:1771   */\n      iszero\n      tag_81\n      jumpi\n        /* \"#utility.yul\":1690:1769   */\n      tag_82\n      tag_51\n      jump\t// in\n    tag_82:\n        /* \"#utility.yul\":1652:1771   */\n    tag_81:\n        /* \"#utility.yul\":1810:1811   */\n      0x00\n        /* \"#utility.yul\":1835:1896   */\n      tag_83\n        /* \"#utility.yul\":1888:1895   */\n      dup5\n        /* \"#utility.yul\":1879:1885   */\n      dup3\n        /* \"#utility.yul\":1868:1877   */\n      dup6\n        /* \"#utility.yul\":1864:1886   */\n      add\n        /* \"#utility.yul\":1835:1896   */\n      tag_54\n      jump\t// in\n    tag_83:\n        /* \"#utility.yul\":1825:1896   */\n      swap2\n      pop\n        /* \"#utility.yul\":1781:1906   */\n      pop\n        /* \"#utility.yul\":1568:1913   */\n      swap3\n      swap2\n      pop\n      pop\n      jump\t// out\n        /* \"#utility.yul\":1919:2018   */\n    tag_55:\n        /* \"#utility.yul\":1971:1977   */\n      0x00\n        /* \"#utility.yul\":2005:2010   */\n      dup2\n        /* \"#utility.yul\":1999:2011   */\n      mload\n        /* \"#utility.yul\":1989:2011   */\n      swap1\n      pop\n        /* \"#utility.yul\":1919:2018   */\n      swap2\n      swap1\n      pop\n      jump\t// out\n        /* \"#utility.yul\":2024:2193   */\n    tag_56:\n        /* \"#utility.yul\":2108:2119   */\n      0x00\n        /* \"#utility.yul\":2142:2148   */\n      dup3\n        /* \"#utility.yul\":2137:2140   */\n      dup3\n        /* \"#utility.yul\":2130:2149   */\n      mstore\n        /* \"#utility.yul\":2182:2186   */\n      0x20\n        /* \"#utility.yul\":2177:2180   */\n      dup3\n        /* \"#utility.yul\":2173:2187   */\n      add\n        /* \"#utility.yul\":2158:2187   */\n      swap1\n      pop\n        /* \"#utility.yul\":2024:2193   */\n      swap3\n      swap2\n      pop\n      pop\n      jump\t// out\n        /* \"#utility.yul\":2199:2338   */\n    tag_57:\n        /* \"#utility.yul\":2288:2294   */\n      dup3\n        /* \"#utility.yul\":2283:2286   */\n      dup2\n        /* \"#utility.yul\":2278:2281   */\n      dup4\n        /* \"#utility.yul\":2272:2295   */\n      mcopy\n        /* \"#utility.yul\":2329:2330   */\n      0x00\n        /* \"#utility.yul\":2320:2326   */\n      dup4\n        /* \"#utility.yul\":2315:2318   */\n      dup4\n        /* \"#utility.yul\":2311:2327   */\n      add\n        /* \"#utility.yul\":2304:2331   */\n      mstore\n        /* \"#utility.yul\":2199:2338   */\n      pop\n      pop\n      pop\n      jump\t// out\n        /* \"#utility.yul\":2344:2446   */\n    tag_58:\n        /* \"#utility.yul\":2385:2391   */\n      0x00\n        /* \"#utility.yul\":2436:2438   */\n      0x1f\n        /* \"#utility.yul\":2432:2439   */\n      not\n        /* \"#utility.yul\":2427:2429   */\n      0x1f\n        /* \"#utility.yul\":2420:2425   */\n      dup4\n        /* \"#utility.yul\":2416:2430   */\n      add\n        /* \"#utility.yul\":2412:2440   */\n      and\n        /* \"#utility.yul\":2402:2440   */\n      swap1\n      pop\n        /* \"#utility.yul\":2344:2446   */\n      swap2\n      swap1\n      pop\n      jump\t// out\n        /* \"#utility.yul\":2452:2829   */\n    tag_59:\n        /* \"#utility.yul\":2540:2543   */\n      0x00\n        /* \"#utility.yul\":2568:2607   */\n      tag_89\n        /* \"#utility.yul\":2601:2606   */\n      dup3\n        /* \"#utility.yul\":2568:2607   */\n      tag_55\n      jump\t// in\n    tag_89:\n        /* \"#utility.yul\":2623:2694   */\n      tag_90\n        /* \"#utility.yul\":2687:2693   */\n      dup2\n        /* \"#utility.yul\":2682:2685   */\n      dup6\n        /* \"#utility.yul\":2623:2694   */\n      tag_56\n      jump\t// in\n    tag_90:\n        /* \"#utility.yul\":2616:2694   */\n      swap4\n      pop\n        /* \"#utility.yul\":2703:2768   */\n      tag_91\n        /* \"#utility.yul\":2761:2767   */\n      dup2\n        /* \"#utility.yul\":2756:2759   */\n      dup6\n        /* \"#utility.yul\":2749:2753   */\n      0x20\n        /* \"#utility.yul\":2742:2747   */\n      dup7\n        /* \"#utility.yul\":2738:2754   */\n      add\n        /* \"#utility.yul\":2703:2768   */\n      tag_57\n      jump\t// in\n    tag_91:\n        /* \"#utility.yul\":2793:2822   */\n      tag_92\n        /* \"#utility.yul\":2815:2821   */\n      dup2\n        /* \"#utility.yul\":2793:2822   */\n      tag_58\n      jump\t// in\n    tag_92:\n        /* \"#utility.yul\":2788:2791   */\n      dup5\n        /* \"#utility.yul\":2784:2823   */\n      add\n        /* \"#utility.yul\":2777:2823   */\n      swap2\n      pop\n        /* \"#utility.yul\":2544:2829   */\n      pop\n        /* \"#utility.yul\":2452:2829   */\n      swap3\n      swap2\n      pop\n      pop\n      jump\t// out\n        /* \"#utility.yul\":2835:3148   */\n    tag_21:\n        /* \"#utility.yul\":2948:2952   */\n      0x00\n        /* \"#utility.yul\":2986:2988   */\n      0x20\n        /* \"#utility.yul\":2975:2984   */\n      dup3\n        /* \"#utility.yul\":2971:2989   */\n      add\n        /* \"#utility.yul\":2963:2989   */\n      swap1\n      pop\n        /* \"#utility.yul\":3035:3044   */\n      dup2\n        /* \"#utility.yul\":3029:3033   */\n      dup2\n        /* \"#utility.yul\":3025:3045   */\n      sub\n        /* \"#utility.yul\":3021:3022   */\n      0x00\n        /* \"#utility.yul\":3010:3019   */\n      dup4\n        /* \"#utility.yul\":3006:3023   */\n      add\n        /* \"#utility.yul\":2999:3046   */\n      mstore\n        /* \"#utility.yul\":3063:3141   */\n      tag_94\n        /* \"#utility.yul\":3136:3140   */\n      dup2\n        /* \"#utility.yul\":3127:3133   */\n      dup5\n        /* \"#utility.yul\":3063:3141   */\n      tag_59\n      jump\t// in\n    tag_94:\n        /* \"#utility.yul\":3055:3141   */\n      swap1\n      pop\n        /* \"#utility.yul\":2835:3148   */\n      swap3\n      swap2\n      pop\n      pop\n      jump\t// out\n\n    auxdata: 0xa264697066735822122066b4f500311e750d7c1fa2eddb3aa0be49ab6d7eaec2eb372ccdfbf4152931f364736f6c634300081e0033\n}\n",
				"bytecode": {
					"linkReferences": {},
					"object": "6080604052348015600e575f5ffd5b506104568061001c5f395ff3fe608060405234801561000f575f5ffd5b506004361061004a575f3560e01c8063200d2ed21461004e5780632e49d78b1461006c5780634e69d5601461008857806395389225146100a6575b5f5ffd5b6100566100c4565b6040516100639190610325565b60405180910390f35b61008660048036038101906100819190610365565b6100d5565b005b610090610100565b60405161009d9190610325565b60405180910390f35b6100ae610114565b6040516100bb9190610400565b60405180910390f35b5f5f9054906101000a900460ff1681565b805f5f6101000a81548160ff021916908360028111156100f8576100f76102b2565b5b021790555050565b5f5f5f9054906101000a900460ff16905090565b60605f6002811115610129576101286102b2565b5b5f5f9054906101000a900460ff166002811115610149576101486102b2565b5b0361018b576040518060400160405280600481526020017f4e6f6e650000000000000000000000000000000000000000000000000000000081525090506102af565b6001600281111561019f5761019e6102b2565b5b5f5f9054906101000a900460ff1660028111156101bf576101be6102b2565b5b03610201576040518060400160405280600781526020017f50656e64696e670000000000000000000000000000000000000000000000000081525090506102af565b600280811115610214576102136102b2565b5b5f5f9054906101000a900460ff166002811115610234576102336102b2565b5b03610276576040518060400160405280600981526020017f436f6d706c65746564000000000000000000000000000000000000000000000081525090506102af565b6040518060400160405280600781526020017f556e6b6e6f776e0000000000000000000000000000000000000000000000000081525090505b90565b7f4e487b71000000000000000000000000000000000000000000000000000000005f52602160045260245ffd5b600381106102f0576102ef6102b2565b5b50565b5f819050610300826102df565b919050565b5f61030f826102f3565b9050919050565b61031f81610305565b82525050565b5f6020820190506103385f830184610316565b92915050565b5f5ffd5b6003811061034e575f5ffd5b50565b5f8135905061035f81610342565b92915050565b5f6020828403121561037a5761037961033e565b5b5f61038784828501610351565b91505092915050565b5f81519050919050565b5f82825260208201905092915050565b8281835e5f83830152505050565b5f601f19601f8301169050919050565b5f6103d282610390565b6103dc818561039a565b93506103ec8185602086016103aa565b6103f5816103b8565b840191505092915050565b5f6020820190508181035f83015261041881846103c8565b90509291505056fea264697066735822122066b4f500311e750d7c1fa2eddb3aa0be49ab6d7eaec2eb372ccdfbf4152931f364736f6c634300081e0033",
					"opcodes": "PUSH1 0x80 PUSH1 0x40 MSTORE CALLVALUE DUP1 ISZERO PUSH1 0xE JUMPI PUSH0 PUSH0 REVERT JUMPDEST POP PUSH2 0x456 DUP1 PUSH2 0x1C PUSH0 CODECOPY PUSH0 RETURN INVALID PUSH1 0x80 PUSH1 0x40 MSTORE CALLVALUE DUP1 ISZERO PUSH2 0xF JUMPI PUSH0 PUSH0 REVERT JUMPDEST POP PUSH1 0x4 CALLDATASIZE LT PUSH2 0x4A JUMPI PUSH0 CALLDATALOAD PUSH1 0xE0 SHR DUP1 PUSH4 0x200D2ED2 EQ PUSH2 0x4E JUMPI DUP1 PUSH4 0x2E49D78B EQ PUSH2 0x6C JUMPI DUP1 PUSH4 0x4E69D560 EQ PUSH2 0x88 JUMPI DUP1 PUSH4 0x95389225 EQ PUSH2 0xA6 JUMPI JUMPDEST PUSH0 PUSH0 REVERT JUMPDEST PUSH2 0x56 PUSH2 0xC4 JUMP JUMPDEST PUSH1 0x40 MLOAD PUSH2 0x63 SWAP2 SWAP1 PUSH2 0x325 JUMP JUMPDEST PUSH1 0x40 MLOAD DUP1 SWAP2 SUB SWAP1 RETURN JUMPDEST PUSH2 0x86 PUSH1 0x4 DUP1 CALLDATASIZE SUB DUP2 ADD SWAP1 PUSH2 0x81 SWAP2 SWAP1 PUSH2 0x365 JUMP JUMPDEST PUSH2 0xD5 JUMP JUMPDEST STOP JUMPDEST PUSH2 0x90 PUSH2 0x100 JUMP JUMPDEST PUSH1 0x40 MLOAD PUSH2 0x9D SWAP2 SWAP1 PUSH2 0x325 JUMP JUMPDEST PUSH1 0x40 MLOAD DUP1 SWAP2 SUB SWAP1 RETURN JUMPDEST PUSH2 0xAE PUSH2 0x114 JUMP JUMPDEST PUSH1 0x40 MLOAD PUSH2 0xBB SWAP2 SWAP1 PUSH2 0x400 JUMP JUMPDEST PUSH1 0x40 MLOAD DUP1 SWAP2 SUB SWAP1 RETURN JUMPDEST PUSH0 PUSH0 SWAP1 SLOAD SWAP1 PUSH2 0x100 EXP SWAP1 DIV PUSH1 0xFF AND DUP2 JUMP JUMPDEST DUP1 PUSH0 PUSH0 PUSH2 0x100 EXP DUP2 SLOAD DUP2 PUSH1 0xFF MUL NOT AND SWAP1 DUP4 PUSH1 0x2 DUP2 GT ISZERO PUSH2 0xF8 JUMPI PUSH2 0xF7 PUSH2 0x2B2 JUMP JUMPDEST JUMPDEST MUL OR SWAP1 SSTORE POP POP JUMP JUMPDEST PUSH0 PUSH0 PUSH0 SWAP1 SLOAD SWAP1 PUSH2 0x100 EXP SWAP1 DIV PUSH1 0xFF AND SWAP1 POP SWAP1 JUMP JUMPDEST PUSH1 0x60 PUSH0 PUSH1 0x2 DUP2 GT ISZERO PUSH2 0x129 JUMPI PUSH2 0x128 PUSH2 0x2B2 JUMP JUMPDEST JUMPDEST PUSH0 PUSH0 SWAP1 SLOAD SWAP1 PUSH2 0x100 EXP SWAP1 DIV PUSH1 0xFF AND PUSH1 0x2 DUP2 GT ISZERO PUSH2 0x149 JUMPI PUSH2 0x148 PUSH2 0x2B2 JUMP JUMPDEST JUMPDEST SUB PUSH2 0x18B JUMPI PUSH1 0x40 MLOAD DUP1 PUSH1 0x40 ADD PUSH1 0x40 MSTORE DUP1 PUSH1 0x4 DUP2 MSTORE PUSH1 0x20 ADD PUSH32 0x4E6F6E6500000000000000000000000000000000000000000000000000000000 DUP2 MSTORE POP SWAP1 POP PUSH2 0x2AF JUMP JUMPDEST PUSH1 0x1 PUSH1 0x2 DUP2 GT ISZERO PUSH2 0x19F JUMPI PUSH2 0x19E PUSH2 0x2B2 JUMP JUMPDEST JUMPDEST PUSH0 PUSH0 SWAP1 SLOAD SWAP1 PUSH2 0x100 EXP SWAP1 DIV PUSH1 0xFF AND PUSH1 0x2 DUP2 GT ISZERO PUSH2 0x1BF JUMPI PUSH2 0x1BE PUSH2 0x2B2 JUMP JUMPDEST JUMPDEST SUB PUSH2 0x201 JUMPI PUSH1 0x40 MLOAD DUP1 PUSH1 0x40 ADD PUSH1 0x40 MSTORE DUP1 PUSH1 0x7 DUP2 MSTORE PUSH1 0x20 ADD PUSH32 0x50656E64696E6700000000000000000000000000000000000000000000000000 DUP2 MSTORE POP SWAP1 POP PUSH2 0x2AF JUMP JUMPDEST PUSH1 0x2 DUP1 DUP2 GT ISZERO PUSH2 0x214 JUMPI PUSH2 0x213 PUSH2 0x2B2 JUMP JUMPDEST JUMPDEST PUSH0 PUSH0 SWAP1 SLOAD SWAP1 PUSH2 0x100 EXP SWAP1 DIV PUSH1 0xFF AND PUSH1 0x2 DUP2 GT ISZERO PUSH2 0x234 JUMPI PUSH2 0x233 PUSH2 0x2B2 JUMP JUMPDEST JUMPDEST SUB PUSH2 0x276 JUMPI PUSH1 0x40 MLOAD DUP1 PUSH1 0x40 ADD PUSH1 0x40 MSTORE DUP1 PUSH1 0x9 DUP2 MSTORE PUSH1 0x20 ADD PUSH32 0x436F6D706C657465640000000000000000000000000000000000000000000000 DUP2 MSTORE POP SWAP1 POP PUSH2 0x2AF JUMP JUMPDEST PUSH1 0x40 MLOAD DUP1 PUSH1 0x40 ADD PUSH1 0x40 MSTORE DUP1 PUSH1 0x7 DUP2 MSTORE PUSH1 0x20 ADD PUSH32 0x556E6B6E6F776E00000000000000000000000000000000000000000000000000 DUP2 MSTORE POP SWAP1 POP JUMPDEST SWAP1 JUMP JUMPDEST PUSH32 0x4E487B7100000000000000000000000000000000000000000000000000000000 PUSH0 MSTORE PUSH1 0x21 PUSH1 0x4 MSTORE PUSH1 0x24 PUSH0 REVERT JUMPDEST PUSH1 0x3 DUP2 LT PUSH2 0x2F0 JUMPI PUSH2 0x2EF PUSH2 0x2B2 JUMP JUMPDEST JUMPDEST POP JUMP JUMPDEST PUSH0 DUP2 SWAP1 POP PUSH2 0x300 DUP3 PUSH2 0x2DF JUMP JUMPDEST SWAP2 SWAP1 POP JUMP JUMPDEST PUSH0 PUSH2 0x30F DUP3 PUSH2 0x2F3 JUMP JUMPDEST SWAP1 POP SWAP2 SWAP1 POP JUMP JUMPDEST PUSH2 0x31F DUP2 PUSH2 0x305 JUMP JUMPDEST DUP3 MSTORE POP POP JUMP JUMPDEST PUSH0 PUSH1 0x20 DUP3 ADD SWAP1 POP PUSH2 0x338 PUSH0 DUP4 ADD DUP5 PUSH2 0x316 JUMP JUMPDEST SWAP3 SWAP2 POP POP JUMP JUMPDEST PUSH0 PUSH0 REVERT JUMPDEST PUSH1 0x3 DUP2 LT PUSH2 0x34E JUMPI PUSH0 PUSH0 REVERT JUMPDEST POP JUMP JUMPDEST PUSH0 DUP2 CALLDATALOAD SWAP1 POP PUSH2 0x35F DUP2 PUSH2 0x342 JUMP JUMPDEST SWAP3 SWAP2 POP POP JUMP JUMPDEST PUSH0 PUSH1 0x20 DUP3 DUP5 SUB SLT ISZERO PUSH2 0x37A JUMPI PUSH2 0x379 PUSH2 0x33E JUMP JUMPDEST JUMPDEST PUSH0 PUSH2 0x387 DUP5 DUP3 DUP6 ADD PUSH2 0x351 JUMP JUMPDEST SWAP2 POP POP SWAP3 SWAP2 POP POP JUMP JUMPDEST PUSH0 DUP2 MLOAD SWAP1 POP SWAP2 SWAP1 POP JUMP JUMPDEST PUSH0 DUP3 DUP3 MSTORE PUSH1 0x20 DUP3 ADD SWAP1 POP SWAP3 SWAP2 POP POP JUMP JUMPDEST DUP3 DUP2 DUP4 MCOPY PUSH0 DUP4 DUP4 ADD MSTORE POP POP POP JUMP JUMPDEST PUSH0 PUSH1 0x1F NOT PUSH1 0x1F DUP4 ADD AND SWAP1 POP SWAP2 SWAP1 POP JUMP JUMPDEST PUSH0 PUSH2 0x3D2 DUP3 PUSH2 0x390 JUMP JUMPDEST PUSH2 0x3DC DUP2 DUP6 PUSH2 0x39A JUMP JUMPDEST SWAP4 POP PUSH2 0x3EC DUP2 DUP6 PUSH1 0x20 DUP7 ADD PUSH2 0x3AA JUMP JUMPDEST PUSH2 0x3F5 DUP2 PUSH2 0x3B8 JUMP JUMPDEST DUP5 ADD SWAP2 POP POP SWAP3 SWAP2 POP POP JUMP JUMPDEST PUSH0 PUSH1 0x20 DUP3 ADD SWAP1 POP DUP2 DUP2 SUB PUSH0 DUP4 ADD MSTORE PUSH2 0x418 DUP2 DUP5 PUSH2 0x3C8 JUMP JUMPDEST SWAP1 POP SWAP3 SWAP2 POP POP JUMP INVALID LOG2 PUSH5 0x6970667358 0x22 SLT KECCAK256 PUSH7 0xB4F500311E750D PUSH29 0x1FA2EDDB3AA0BE49AB6D7EAEC2EB372CCDFBF4152931F364736F6C6343 STOP ADDMOD 0x1E STOP CALLER "
				},
				"gasEstimates": {
					"creation": {
						"codeDepositCost": "222000",
						"executionCost": "261",
						"totalCost": "222261"
					},
					"external": {
						"getStatus()": "2582",
						"getStatusName()": "infinite",
						"setStatus(uint8)": "24644",
						"status()": "2531"
					}
				},
				"methodIdentifiers": {
					"getStatus()": "4e69d560",
					"getStatusName()": "95389225",
					"setStatus(uint8)": "2e49d78b",
					"status()": "200d2ed2"
				}
			},
			"storageLayout": {
				"storage": [
					{
						"astId": 8,
						"contract": "solidity-learning-lab/21_枚举.sol:Enum",
						"label": "status",
						"offset": 0,
						"slot": "0",
						"type": "t_enum(Status)5"
					}
				],
				"types": {
					"t_enum(Status)5": {
						"encoding": "inplace",
						"label": "enum Enum.Status",
						"numberOfBytes": "1"
					}
				}
			},
			"userdoc": {
				"kind": "user",
				"methods": {},
				"version": 1
			}
		}
	}
}