{
	"solidity-learning-lab/11_结构控制.sol": {
		"IfElse": {
			"abi": [
				{
					"inputs": [
						{
							"internalType": "uint256",
							"name": "_x",
							"type": "uint256"
						}
					],
					"name": "example",
					"outputs": [
						{
							"internalType": "uint256",
							"name": "",
							"type": "uint256"
						}
					],
					"stateMutability": "pure",
					"type": "function"
				},
				{
					"inputs": [
						{
							"internalType": "uint256",
							"name": "_x",
							"type": "uint256"
						}
					],
					"name": "example2",
					"outputs": [
						{
							"internalType": "uint256",
							"name": "",
							"type": "uint256"
						}
					],
					"stateMutability": "pure",
					"type": "function"
				}
			],
			"devdoc": {
				"kind": "dev",
				"methods": {},
				"version": 1
			},
			"evm": {
				"assembly": "    /* \"solidity-learning-lab/11_\\xe7\\xbb\\x93\\xe6\\x9e\\x84\\xe6\\x8e\\xa7\\xe5\\x88\\xb6.sol\":58:425  contract IfElse {... */\n  mstore(0x40, 0x80)\n  callvalue\n  dup1\n  iszero\n  tag_1\n  jumpi\n  revert(0x00, 0x00)\ntag_1:\n  pop\n  dataSize(sub_0)\n  dup1\n  dataOffset(sub_0)\n  0x00\n  codecopy\n  0x00\n  return\nstop\n\nsub_0: assembly {\n        /* \"solidity-learning-lab/11_\\xe7\\xbb\\x93\\xe6\\x9e\\x84\\xe6\\x8e\\xa7\\xe5\\x88\\xb6.sol\":58:425  contract IfElse {... */\n      mstore(0x40, 0x80)\n      callvalue\n      dup1\n      iszero\n      tag_1\n      jumpi\n      revert(0x00, 0x00)\n    tag_1:\n      pop\n      jumpi(tag_2, lt(calldatasize, 0x04))\n      shr(0xe0, calldataload(0x00))\n      dup1\n      0x477e4a02\n      eq\n      tag_3\n      jumpi\n      dup1\n      0xc6fb5866\n      eq\n      tag_4\n      jumpi\n    tag_2:\n      revert(0x00, 0x00)\n        /* \"solidity-learning-lab/11_\\xe7\\xbb\\x93\\xe6\\x9e\\x84\\xe6\\x8e\\xa7\\xe5\\x88\\xb6.sol\":80:271  function example(uint256 _x) external pure returns (uint256) {... */\n    tag_3:\n      tag_5\n      0x04\n      dup1\n      calldatasize\n      sub\n      dup2\n      add\n      swap1\n      tag_6\n      swap2\n      swap1\n      tag_7\n      jump\t// in\n    tag_6:\n      tag_8\n      jump\t// in\n    tag_5:\n      mload(0x40)\n      tag_9\n      swap2\n      swap1\n      tag_10\n      jump\t// in\n    tag_9:\n      mload(0x40)\n      dup1\n      swap2\n      sub\n      swap1\n      return\n        /* \"solidity-learning-lab/11_\\xe7\\xbb\\x93\\xe6\\x9e\\x84\\xe6\\x8e\\xa7\\xe5\\x88\\xb6.sol\":277:423  function example2(uint256 _x) external pure returns (uint256) {... */\n    tag_4:\n      tag_11\n      0x04\n      dup1\n      calldatasize\n      sub\n      dup2\n      add\n      swap1\n      tag_12\n      swap2\n      swap1\n      tag_7\n      jump\t// in\n    tag_12:\n      tag_13\n      jump\t// in\n    tag_11:\n      mload(0x40)\n      tag_14\n      swap2\n      swap1\n      tag_10\n      jump\t// in\n    tag_14:\n      mload(0x40)\n      dup1\n      swap2\n      sub\n      swap1\n      return\n        /* \"solidity-learning-lab/11_\\xe7\\xbb\\x93\\xe6\\x9e\\x84\\xe6\\x8e\\xa7\\xe5\\x88\\xb6.sol\":80:271  function example(uint256 _x) external pure returns (uint256) {... */\n    tag_8:\n        /* \"solidity-learning-lab/11_\\xe7\\xbb\\x93\\xe6\\x9e\\x84\\xe6\\x8e\\xa7\\xe5\\x88\\xb6.sol\":132:139  uint256 */\n      0x00\n        /* \"solidity-learning-lab/11_\\xe7\\xbb\\x93\\xe6\\x9e\\x84\\xe6\\x8e\\xa7\\xe5\\x88\\xb6.sol\":189:191  10 */\n      0x0a\n        /* \"solidity-learning-lab/11_\\xe7\\xbb\\x93\\xe6\\x9e\\x84\\xe6\\x8e\\xa7\\xe5\\x88\\xb6.sol\":184:186  _x */\n      dup3\n        /* \"solidity-learning-lab/11_\\xe7\\xbb\\x93\\xe6\\x9e\\x84\\xe6\\x8e\\xa7\\xe5\\x88\\xb6.sol\":184:191  _x < 10 */\n      lt\n        /* \"solidity-learning-lab/11_\\xe7\\xbb\\x93\\xe6\\x9e\\x84\\xe6\\x8e\\xa7\\xe5\\x88\\xb6.sol\":180:265  if (_x < 10) {... */\n      iszero\n      tag_16\n      jumpi\n        /* \"solidity-learning-lab/11_\\xe7\\xbb\\x93\\xe6\\x9e\\x84\\xe6\\x8e\\xa7\\xe5\\x88\\xb6.sol\":214:215  1 */\n      0x01\n        /* \"solidity-learning-lab/11_\\xe7\\xbb\\x93\\xe6\\x9e\\x84\\xe6\\x8e\\xa7\\xe5\\x88\\xb6.sol\":207:215  return 1 */\n      swap1\n      pop\n      jump(tag_15)\n        /* \"solidity-learning-lab/11_\\xe7\\xbb\\x93\\xe6\\x9e\\x84\\xe6\\x8e\\xa7\\xe5\\x88\\xb6.sol\":180:265  if (_x < 10) {... */\n    tag_16:\n        /* \"solidity-learning-lab/11_\\xe7\\xbb\\x93\\xe6\\x9e\\x84\\xe6\\x8e\\xa7\\xe5\\x88\\xb6.sol\":253:254  2 */\n      0x02\n        /* \"solidity-learning-lab/11_\\xe7\\xbb\\x93\\xe6\\x9e\\x84\\xe6\\x8e\\xa7\\xe5\\x88\\xb6.sol\":246:254  return 2 */\n      swap1\n      pop\n        /* \"solidity-learning-lab/11_\\xe7\\xbb\\x93\\xe6\\x9e\\x84\\xe6\\x8e\\xa7\\xe5\\x88\\xb6.sol\":80:271  function example(uint256 _x) external pure returns (uint256) {... */\n    tag_15:\n      swap2\n      swap1\n      pop\n      jump\t// out\n        /* \"solidity-learning-lab/11_\\xe7\\xbb\\x93\\xe6\\x9e\\x84\\xe6\\x8e\\xa7\\xe5\\x88\\xb6.sol\":277:423  function example2(uint256 _x) external pure returns (uint256) {... */\n    tag_13:\n        /* \"solidity-learning-lab/11_\\xe7\\xbb\\x93\\xe6\\x9e\\x84\\xe6\\x8e\\xa7\\xe5\\x88\\xb6.sol\":330:337  uint256 */\n      0x00\n        /* \"solidity-learning-lab/11_\\xe7\\xbb\\x93\\xe6\\x9e\\x84\\xe6\\x8e\\xa7\\xe5\\x88\\xb6.sol\":406:408  10 */\n      0x0a\n        /* \"solidity-learning-lab/11_\\xe7\\xbb\\x93\\xe6\\x9e\\x84\\xe6\\x8e\\xa7\\xe5\\x88\\xb6.sol\":401:403  _x */\n      dup3\n        /* \"solidity-learning-lab/11_\\xe7\\xbb\\x93\\xe6\\x9e\\x84\\xe6\\x8e\\xa7\\xe5\\x88\\xb6.sol\":401:408  _x < 10 */\n      lt\n        /* \"solidity-learning-lab/11_\\xe7\\xbb\\x93\\xe6\\x9e\\x84\\xe6\\x8e\\xa7\\xe5\\x88\\xb6.sol\":401:416  _x < 10 ? 1 : 2 */\n      tag_19\n      jumpi\n        /* \"solidity-learning-lab/11_\\xe7\\xbb\\x93\\xe6\\x9e\\x84\\xe6\\x8e\\xa7\\xe5\\x88\\xb6.sol\":415:416  2 */\n      0x02\n        /* \"solidity-learning-lab/11_\\xe7\\xbb\\x93\\xe6\\x9e\\x84\\xe6\\x8e\\xa7\\xe5\\x88\\xb6.sol\":401:416  _x < 10 ? 1 : 2 */\n      jump(tag_20)\n    tag_19:\n        /* \"solidity-learning-lab/11_\\xe7\\xbb\\x93\\xe6\\x9e\\x84\\xe6\\x8e\\xa7\\xe5\\x88\\xb6.sol\":411:412  1 */\n      0x01\n        /* \"solidity-learning-lab/11_\\xe7\\xbb\\x93\\xe6\\x9e\\x84\\xe6\\x8e\\xa7\\xe5\\x88\\xb6.sol\":401:416  _x < 10 ? 1 : 2 */\n    tag_20:\n        /* \"solidity-learning-lab/11_\\xe7\\xbb\\x93\\xe6\\x9e\\x84\\xe6\\x8e\\xa7\\xe5\\x88\\xb6.sol\":394:416  return _x < 10 ? 1 : 2 */\n      0xff\n      and\n      swap1\n      pop\n        /* \"solidity-learning-lab/11_\\xe7\\xbb\\x93\\xe6\\x9e\\x84\\xe6\\x8e\\xa7\\xe5\\x88\\xb6.sol\":277:423  function example2(uint256 _x) external pure returns (uint256) {... */\n      swap2\n      swap1\n      pop\n      jump\t// out\n        /* \"#utility.yul\":88:205   */\n    tag_22:\n        /* \"#utility.yul\":197:198   */\n      0x00\n        /* \"#utility.yul\":194:195   */\n      0x00\n        /* \"#utility.yul\":187:199   */\n      revert\n        /* \"#utility.yul\":334:411   */\n    tag_24:\n        /* \"#utility.yul\":371:378   */\n      0x00\n        /* \"#utility.yul\":400:405   */\n      dup2\n        /* \"#utility.yul\":389:405   */\n      swap1\n      pop\n        /* \"#utility.yul\":334:411   */\n      swap2\n      swap1\n      pop\n      jump\t// out\n        /* \"#utility.yul\":417:539   */\n    tag_25:\n        /* \"#utility.yul\":490:514   */\n      tag_34\n        /* \"#utility.yul\":508:513   */\n      dup2\n        /* \"#utility.yul\":490:514   */\n      tag_24\n      jump\t// in\n    tag_34:\n        /* \"#utility.yul\":483:488   */\n      dup2\n        /* \"#utility.yul\":480:515   */\n      eq\n        /* \"#utility.yul\":470:533   */\n      tag_35\n      jumpi\n        /* \"#utility.yul\":529:530   */\n      0x00\n        /* \"#utility.yul\":526:527   */\n      0x00\n        /* \"#utility.yul\":519:531   */\n      revert\n        /* \"#utility.yul\":470:533   */\n    tag_35:\n        /* \"#utility.yul\":417:539   */\n      pop\n      jump\t// out\n        /* \"#utility.yul\":545:684   */\n    tag_26:\n        /* \"#utility.yul\":591:596   */\n      0x00\n        /* \"#utility.yul\":629:635   */\n      dup2\n        /* \"#utility.yul\":616:636   */\n      calldataload\n        /* \"#utility.yul\":607:636   */\n      swap1\n      pop\n        /* \"#utility.yul\":645:678   */\n      tag_37\n        /* \"#utility.yul\":672:677   */\n      dup2\n        /* \"#utility.yul\":645:678   */\n      tag_25\n      jump\t// in\n    tag_37:\n        /* \"#utility.yul\":545:684   */\n      swap3\n      swap2\n      pop\n      pop\n      jump\t// out\n        /* \"#utility.yul\":690:1019   */\n    tag_7:\n        /* \"#utility.yul\":749:755   */\n      0x00\n        /* \"#utility.yul\":798:800   */\n      0x20\n        /* \"#utility.yul\":786:795   */\n      dup3\n        /* \"#utility.yul\":777:784   */\n      dup5\n        /* \"#utility.yul\":773:796   */\n      sub\n        /* \"#utility.yul\":769:801   */\n      slt\n        /* \"#utility.yul\":766:885   */\n      iszero\n      tag_39\n      jumpi\n        /* \"#utility.yul\":804:883   */\n      tag_40\n      tag_22\n      jump\t// in\n    tag_40:\n        /* \"#utility.yul\":766:885   */\n    tag_39:\n        /* \"#utility.yul\":924:925   */\n      0x00\n        /* \"#utility.yul\":949:1002   */\n      tag_41\n        /* \"#utility.yul\":994:1001   */\n      dup5\n        /* \"#utility.yul\":985:991   */\n      dup3\n        /* \"#utility.yul\":974:983   */\n      dup6\n        /* \"#utility.yul\":970:992   */\n      add\n        /* \"#utility.yul\":949:1002   */\n      tag_26\n      jump\t// in\n    tag_41:\n        /* \"#utility.yul\":939:1002   */\n      swap2\n      pop\n        /* \"#utility.yul\":895:1012   */\n      pop\n        /* \"#utility.yul\":690:1019   */\n      swap3\n      swap2\n      pop\n      pop\n      jump\t// out\n        /* \"#utility.yul\":1025:1143   */\n    tag_27:\n        /* \"#utility.yul\":1112:1136   */\n      tag_43\n        /* \"#utility.yul\":1130:1135   */\n      dup2\n        /* \"#utility.yul\":1112:1136   */\n      tag_24\n      jump\t// in\n    tag_43:\n        /* \"#utility.yul\":1107:1110   */\n      dup3\n        /* \"#utility.yul\":1100:1137   */\n      mstore\n        /* \"#utility.yul\":1025:1143   */\n      pop\n      pop\n      jump\t// out\n        /* \"#utility.yul\":1149:1371   */\n    tag_10:\n        /* \"#utility.yul\":1242:1246   */\n      0x00\n        /* \"#utility.yul\":1280:1282   */\n      0x20\n        /* \"#utility.yul\":1269:1278   */\n      dup3\n        /* \"#utility.yul\":1265:1283   */\n      add\n        /* \"#utility.yul\":1257:1283   */\n      swap1\n      pop\n        /* \"#utility.yul\":1293:1364   */\n      tag_45\n        /* \"#utility.yul\":1361:1362   */\n      0x00\n        /* \"#utility.yul\":1350:1359   */\n      dup4\n        /* \"#utility.yul\":1346:1363   */\n      add\n        /* \"#utility.yul\":1337:1343   */\n      dup5\n        /* \"#utility.yul\":1293:1364   */\n      tag_27\n      jump\t// in\n    tag_45:\n        /* \"#utility.yul\":1149:1371   */\n      swap3\n      swap2\n      pop\n      pop\n      jump\t// out\n\n    auxdata: 0xa2646970667358221220f257d18235e864e922be02bed079dd6395179a99e0f73da4ad6dc61dc7fea34264736f6c634300081e0033\n}\n",
				"bytecode": {
					"linkReferences": {},
					"object": "6080604052348015600e575f5ffd5b506101928061001c5f395ff3fe608060405234801561000f575f5ffd5b5060043610610034575f3560e01c8063477e4a0214610038578063c6fb586614610068575b5f5ffd5b610052600480360381019061004d9190610109565b610098565b60405161005f9190610143565b60405180910390f35b610082600480360381019061007d9190610109565b6100b5565b60405161008f9190610143565b60405180910390f35b5f600a8210156100ab57600190506100b0565b600290505b919050565b5f600a82106100c55760026100c8565b60015b60ff169050919050565b5f5ffd5b5f819050919050565b6100e8816100d6565b81146100f2575f5ffd5b50565b5f81359050610103816100df565b92915050565b5f6020828403121561011e5761011d6100d2565b5b5f61012b848285016100f5565b91505092915050565b61013d816100d6565b82525050565b5f6020820190506101565f830184610134565b9291505056fea2646970667358221220f257d18235e864e922be02bed079dd6395179a99e0f73da4ad6dc61dc7fea34264736f6c634300081e0033",
					"opcodes": "PUSH1 0x80 PUSH1 0x40 MSTORE CALLVALUE DUP1 ISZERO PUSH1 0xE JUMPI PUSH0 PUSH0 REVERT JUMPDEST POP PUSH2 0x192 DUP1 PUSH2 0x1C PUSH0 CODECOPY PUSH0 RETURN INVALID PUSH1 0x80 PUSH1 0x40 MSTORE CALLVALUE DUP1 ISZERO PUSH2 0xF JUMPI PUSH0 PUSH0 REVERT JUMPDEST POP PUSH1 0x4 CALLDATASIZE LT PUSH2 0x34 JUMPI PUSH0 CALLDATALOAD PUSH1 0xE0 SHR DUP1 PUSH4 0x477E4A02 EQ PUSH2 0x38 JUMPI DUP1 PUSH4 0xC6FB5866 EQ PUSH2 0x68 JUMPI JUMPDEST PUSH0 PUSH0 REVERT JUMPDEST PUSH2 0x52 PUSH1 0x4 DUP1 CALLDATASIZE SUB DUP2 ADD SWAP1 PUSH2 0x4D SWAP2 SWAP1 PUSH2 0x109 JUMP JUMPDEST PUSH2 0x98 JUMP JUMPDEST PUSH1 0x40 MLOAD PUSH2 0x5F SWAP2 SWAP1 PUSH2 0x143 JUMP JUMPDEST PUSH1 0x40 MLOAD DUP1 SWAP2 SUB SWAP1 RETURN JUMPDEST PUSH2 0x82 PUSH1 0x4 DUP1 CALLDATASIZE SUB DUP2 ADD SWAP1 PUSH2 0x7D SWAP2 SWAP1 PUSH2 0x109 JUMP JUMPDEST PUSH2 0xB5 JUMP JUMPDEST PUSH1 0x40 MLOAD PUSH2 0x8F SWAP2 SWAP1 PUSH2 0x143 JUMP JUMPDEST PUSH1 0x40 MLOAD DUP1 SWAP2 SUB SWAP1 RETURN JUMPDEST PUSH0 PUSH1 0xA DUP3 LT ISZERO PUSH2 0xAB JUMPI PUSH1 0x1 SWAP1 POP PUSH2 0xB0 JUMP JUMPDEST PUSH1 0x2 SWAP1 POP JUMPDEST SWAP2 SWAP1 POP JUMP JUMPDEST PUSH0 PUSH1 0xA DUP3 LT PUSH2 0xC5 JUMPI PUSH1 0x2 PUSH2 0xC8 JUMP JUMPDEST PUSH1 0x1 JUMPDEST PUSH1 0xFF AND SWAP1 POP SWAP2 SWAP1 POP JUMP JUMPDEST PUSH0 PUSH0 REVERT JUMPDEST PUSH0 DUP2 SWAP1 POP SWAP2 SWAP1 POP JUMP JUMPDEST PUSH2 0xE8 DUP2 PUSH2 0xD6 JUMP JUMPDEST DUP2 EQ PUSH2 0xF2 JUMPI PUSH0 PUSH0 REVERT JUMPDEST POP JUMP JUMPDEST PUSH0 DUP2 CALLDATALOAD SWAP1 POP PUSH2 0x103 DUP2 PUSH2 0xDF JUMP JUMPDEST SWAP3 SWAP2 POP POP JUMP JUMPDEST PUSH0 PUSH1 0x20 DUP3 DUP5 SUB SLT ISZERO PUSH2 0x11E JUMPI PUSH2 0x11D PUSH2 0xD2 JUMP JUMPDEST JUMPDEST PUSH0 PUSH2 0x12B DUP5 DUP3 DUP6 ADD PUSH2 0xF5 JUMP JUMPDEST SWAP2 POP POP SWAP3 SWAP2 POP POP JUMP JUMPDEST PUSH2 0x13D DUP2 PUSH2 0xD6 JUMP JUMPDEST DUP3 MSTORE POP POP JUMP JUMPDEST PUSH0 PUSH1 0x20 DUP3 ADD SWAP1 POP PUSH2 0x156 PUSH0 DUP4 ADD DUP5 PUSH2 0x134 JUMP JUMPDEST SWAP3 SWAP2 POP POP JUMP INVALID LOG2 PUSH5 0x6970667358 0x22 SLT KECCAK256 CALLCODE JUMPI DATALOADN 0x8235 0xE8 PUSH5 0xE922BE02BE 0xD0 PUSH26 0xDD6395179A99E0F73DA4AD6DC61DC7FEA34264736F6C63430008 0x1E STOP CALLER "
				},
				"gasEstimates": {
					"creation": {
						"codeDepositCost": "80400",
						"executionCost": "127",
						"totalCost": "80527"
					},
					"external": {
						"example(uint256)": "infinite",
						"example2(uint256)": "infinite"
					}
				},
				"methodIdentifiers": {
					"example(uint256)": "477e4a02",
					"example2(uint256)": "c6fb5866"
				}
			},
			"storageLayout": {
				"storage": [],
				"types": null
			},
			"userdoc": {
				"kind": "user",
				"methods": {},
				"version": 1
			}
		}
	}
}