{
	"solidity-learning-lab/13_报错控制.sol": {
		"ErrorDemo": {
			"abi": [
				{
					"inputs": [
						{
							"internalType": "address",
							"name": "caller",
							"type": "address"
						},
						{
							"internalType": "uint256",
							"name": "num",
							"type": "uint256"
						}
					],
					"name": "MyError",
					"type": "error"
				},
				{
					"inputs": [],
					"name": "num",
					"outputs": [
						{
							"internalType": "uint256",
							"name": "",
							"type": "uint256"
						}
					],
					"stateMutability": "view",
					"type": "function"
				},
				{
					"inputs": [],
					"name": "testAssert",
					"outputs": [],
					"stateMutability": "view",
					"type": "function"
				},
				{
					"inputs": [
						{
							"internalType": "uint256",
							"name": "_i",
							"type": "uint256"
						}
					],
					"name": "testCustomError",
					"outputs": [],
					"stateMutability": "view",
					"type": "function"
				},
				{
					"inputs": [
						{
							"internalType": "uint256",
							"name": "_i",
							"type": "uint256"
						}
					],
					"name": "testRequire",
					"outputs": [],
					"stateMutability": "pure",
					"type": "function"
				},
				{
					"inputs": [
						{
							"internalType": "uint256",
							"name": "_i",
							"type": "uint256"
						}
					],
					"name": "testRevert",
					"outputs": [],
					"stateMutability": "pure",
					"type": "function"
				}
			],
			"devdoc": {
				"kind": "dev",
				"methods": {},
				"version": 1
			},
			"evm": {
				"assembly": "    /* \"solidity-learning-lab/13_\\xe6\\x8a\\xa5\\xe9\\x94\\x99\\xe6\\x8e\\xa7\\xe5\\x88\\xb6.sol\":58:1005  contract ErrorDemo {... */\n  mstore(0x40, 0x80)\n    /* \"solidity-learning-lab/13_\\xe6\\x8a\\xa5\\xe9\\x94\\x99\\xe6\\x8e\\xa7\\xe5\\x88\\xb6.sol\":540:543  123 */\n  0x7b\n    /* \"solidity-learning-lab/13_\\xe6\\x8a\\xa5\\xe9\\x94\\x99\\xe6\\x8e\\xa7\\xe5\\x88\\xb6.sol\":519:543  uint256 public num = 123 */\n  0x00\n  sstore\n    /* \"solidity-learning-lab/13_\\xe6\\x8a\\xa5\\xe9\\x94\\x99\\xe6\\x8e\\xa7\\xe5\\x88\\xb6.sol\":58:1005  contract ErrorDemo {... */\n  callvalue\n  dup1\n  iszero\n  tag_1\n  jumpi\n  revert(0x00, 0x00)\ntag_1:\n  pop\n  dataSize(sub_0)\n  dup1\n  dataOffset(sub_0)\n  0x00\n  codecopy\n  0x00\n  return\nstop\n\nsub_0: assembly {\n        /* \"solidity-learning-lab/13_\\xe6\\x8a\\xa5\\xe9\\x94\\x99\\xe6\\x8e\\xa7\\xe5\\x88\\xb6.sol\":58:1005  contract ErrorDemo {... */\n      mstore(0x40, 0x80)\n      callvalue\n      dup1\n      iszero\n      tag_1\n      jumpi\n      revert(0x00, 0x00)\n    tag_1:\n      pop\n      jumpi(tag_2, lt(calldatasize, 0x04))\n      shr(0xe0, calldataload(0x00))\n      dup1\n      0x20987767\n      eq\n      tag_3\n      jumpi\n      dup1\n      0x2b813bc0\n      eq\n      tag_4\n      jumpi\n      dup1\n      0x4e70b1dc\n      eq\n      tag_5\n      jumpi\n      dup1\n      0x75f7286c\n      eq\n      tag_6\n      jumpi\n      dup1\n      0xb8bd717f\n      eq\n      tag_7\n      jumpi\n    tag_2:\n      revert(0x00, 0x00)\n        /* \"solidity-learning-lab/13_\\xe6\\x8a\\xa5\\xe9\\x94\\x99\\xe6\\x8e\\xa7\\xe5\\x88\\xb6.sol\":295:513  function testRevert(uint256 _i) public pure {... */\n    tag_3:\n      tag_8\n      0x04\n      dup1\n      calldatasize\n      sub\n      dup2\n      add\n      swap1\n      tag_9\n      swap2\n      swap1\n      tag_10\n      jump\t// in\n    tag_9:\n      tag_11\n      jump\t// in\n    tag_8:\n      stop\n        /* \"solidity-learning-lab/13_\\xe6\\x8a\\xa5\\xe9\\x94\\x99\\xe6\\x8e\\xa7\\xe5\\x88\\xb6.sol\":550:740  function testAssert() public view {... */\n    tag_4:\n      tag_12\n      tag_13\n      jump\t// in\n    tag_12:\n      stop\n        /* \"solidity-learning-lab/13_\\xe6\\x8a\\xa5\\xe9\\x94\\x99\\xe6\\x8e\\xa7\\xe5\\x88\\xb6.sol\":519:543  uint256 public num = 123 */\n    tag_5:\n      tag_14\n      tag_15\n      jump\t// in\n    tag_14:\n      mload(0x40)\n      tag_16\n      swap2\n      swap1\n      tag_17\n      jump\t// in\n    tag_16:\n      mload(0x40)\n      dup1\n      swap2\n      sub\n      swap1\n      return\n        /* \"solidity-learning-lab/13_\\xe6\\x8a\\xa5\\xe9\\x94\\x99\\xe6\\x8e\\xa7\\xe5\\x88\\xb6.sol\":870:1003  function testCustomError(uint256 _i) public view {... */\n    tag_6:\n      tag_18\n      0x04\n      dup1\n      calldatasize\n      sub\n      dup2\n      add\n      swap1\n      tag_19\n      swap2\n      swap1\n      tag_10\n      jump\t// in\n    tag_19:\n      tag_20\n      jump\t// in\n    tag_18:\n      stop\n        /* \"solidity-learning-lab/13_\\xe6\\x8a\\xa5\\xe9\\x94\\x99\\xe6\\x8e\\xa7\\xe5\\x88\\xb6.sol\":83:289  function testRequire(uint256 _i) public pure {... */\n    tag_7:\n      tag_21\n      0x04\n      dup1\n      calldatasize\n      sub\n      dup2\n      add\n      swap1\n      tag_22\n      swap2\n      swap1\n      tag_10\n      jump\t// in\n    tag_22:\n      tag_23\n      jump\t// in\n    tag_21:\n      stop\n        /* \"solidity-learning-lab/13_\\xe6\\x8a\\xa5\\xe9\\x94\\x99\\xe6\\x8e\\xa7\\xe5\\x88\\xb6.sol\":295:513  function testRevert(uint256 _i) public pure {... */\n    tag_11:\n        /* \"solidity-learning-lab/13_\\xe6\\x8a\\xa5\\xe9\\x94\\x99\\xe6\\x8e\\xa7\\xe5\\x88\\xb6.sol\":396:397  1 */\n      0x01\n        /* \"solidity-learning-lab/13_\\xe6\\x8a\\xa5\\xe9\\x94\\x99\\xe6\\x8e\\xa7\\xe5\\x88\\xb6.sol\":391:393  _i */\n      dup2\n        /* \"solidity-learning-lab/13_\\xe6\\x8a\\xa5\\xe9\\x94\\x99\\xe6\\x8e\\xa7\\xe5\\x88\\xb6.sol\":391:397  _i > 1 */\n      gt\n        /* \"solidity-learning-lab/13_\\xe6\\x8a\\xa5\\xe9\\x94\\x99\\xe6\\x8e\\xa7\\xe5\\x88\\xb6.sol\":387:507  if (_i > 1) {... */\n      iszero\n      tag_25\n      jumpi\n        /* \"solidity-learning-lab/13_\\xe6\\x8a\\xa5\\xe9\\x94\\x99\\xe6\\x8e\\xa7\\xe5\\x88\\xb6.sol\":446:448  10 */\n      0x0a\n        /* \"solidity-learning-lab/13_\\xe6\\x8a\\xa5\\xe9\\x94\\x99\\xe6\\x8e\\xa7\\xe5\\x88\\xb6.sol\":441:443  _i */\n      dup2\n        /* \"solidity-learning-lab/13_\\xe6\\x8a\\xa5\\xe9\\x94\\x99\\xe6\\x8e\\xa7\\xe5\\x88\\xb6.sol\":441:448  _i > 10 */\n      gt\n        /* \"solidity-learning-lab/13_\\xe6\\x8a\\xa5\\xe9\\x94\\x99\\xe6\\x8e\\xa7\\xe5\\x88\\xb6.sol\":437:497  if (_i > 10) {... */\n      iszero\n      tag_26\n      jumpi\n        /* \"solidity-learning-lab/13_\\xe6\\x8a\\xa5\\xe9\\x94\\x99\\xe6\\x8e\\xa7\\xe5\\x88\\xb6.sol\":468:482  revert(\"i>10\") */\n      mload(0x40)\n      0x08c379a000000000000000000000000000000000000000000000000000000000\n      dup2\n      mstore\n      0x04\n      add\n      tag_27\n      swap1\n      tag_28\n      jump\t// in\n    tag_27:\n      mload(0x40)\n      dup1\n      swap2\n      sub\n      swap1\n      revert\n        /* \"solidity-learning-lab/13_\\xe6\\x8a\\xa5\\xe9\\x94\\x99\\xe6\\x8e\\xa7\\xe5\\x88\\xb6.sol\":437:497  if (_i > 10) {... */\n    tag_26:\n        /* \"solidity-learning-lab/13_\\xe6\\x8a\\xa5\\xe9\\x94\\x99\\xe6\\x8e\\xa7\\xe5\\x88\\xb6.sol\":387:507  if (_i > 1) {... */\n    tag_25:\n        /* \"solidity-learning-lab/13_\\xe6\\x8a\\xa5\\xe9\\x94\\x99\\xe6\\x8e\\xa7\\xe5\\x88\\xb6.sol\":295:513  function testRevert(uint256 _i) public pure {... */\n      pop\n      jump\t// out\n        /* \"solidity-learning-lab/13_\\xe6\\x8a\\xa5\\xe9\\x94\\x99\\xe6\\x8e\\xa7\\xe5\\x88\\xb6.sol\":550:740  function testAssert() public view {... */\n    tag_13:\n        /* \"solidity-learning-lab/13_\\xe6\\x8a\\xa5\\xe9\\x94\\x99\\xe6\\x8e\\xa7\\xe5\\x88\\xb6.sol\":729:732  123 */\n      0x7b\n        /* \"solidity-learning-lab/13_\\xe6\\x8a\\xa5\\xe9\\x94\\x99\\xe6\\x8e\\xa7\\xe5\\x88\\xb6.sol\":722:725  num */\n      sload(0x00)\n        /* \"solidity-learning-lab/13_\\xe6\\x8a\\xa5\\xe9\\x94\\x99\\xe6\\x8e\\xa7\\xe5\\x88\\xb6.sol\":722:732  num == 123 */\n      eq\n        /* \"solidity-learning-lab/13_\\xe6\\x8a\\xa5\\xe9\\x94\\x99\\xe6\\x8e\\xa7\\xe5\\x88\\xb6.sol\":715:733  assert(num == 123) */\n      tag_30\n      jumpi\n      tag_31\n      tag_32\n      jump\t// in\n    tag_31:\n    tag_30:\n        /* \"solidity-learning-lab/13_\\xe6\\x8a\\xa5\\xe9\\x94\\x99\\xe6\\x8e\\xa7\\xe5\\x88\\xb6.sol\":550:740  function testAssert() public view {... */\n      jump\t// out\n        /* \"solidity-learning-lab/13_\\xe6\\x8a\\xa5\\xe9\\x94\\x99\\xe6\\x8e\\xa7\\xe5\\x88\\xb6.sol\":519:543  uint256 public num = 123 */\n    tag_15:\n      sload(0x00)\n      dup2\n      jump\t// out\n        /* \"solidity-learning-lab/13_\\xe6\\x8a\\xa5\\xe9\\x94\\x99\\xe6\\x8e\\xa7\\xe5\\x88\\xb6.sol\":870:1003  function testCustomError(uint256 _i) public view {... */\n    tag_20:\n        /* \"solidity-learning-lab/13_\\xe6\\x8a\\xa5\\xe9\\x94\\x99\\xe6\\x8e\\xa7\\xe5\\x88\\xb6.sol\":938:940  10 */\n      0x0a\n        /* \"solidity-learning-lab/13_\\xe6\\x8a\\xa5\\xe9\\x94\\x99\\xe6\\x8e\\xa7\\xe5\\x88\\xb6.sol\":933:935  _i */\n      dup2\n        /* \"solidity-learning-lab/13_\\xe6\\x8a\\xa5\\xe9\\x94\\x99\\xe6\\x8e\\xa7\\xe5\\x88\\xb6.sol\":933:940  _i > 10 */\n      gt\n        /* \"solidity-learning-lab/13_\\xe6\\x8a\\xa5\\xe9\\x94\\x99\\xe6\\x8e\\xa7\\xe5\\x88\\xb6.sol\":929:997  if (_i > 10) {... */\n      iszero\n      tag_34\n      jumpi\n        /* \"solidity-learning-lab/13_\\xe6\\x8a\\xa5\\xe9\\x94\\x99\\xe6\\x8e\\xa7\\xe5\\x88\\xb6.sol\":971:981  msg.sender */\n      caller\n        /* \"solidity-learning-lab/13_\\xe6\\x8a\\xa5\\xe9\\x94\\x99\\xe6\\x8e\\xa7\\xe5\\x88\\xb6.sol\":983:985  _i */\n      dup2\n        /* \"solidity-learning-lab/13_\\xe6\\x8a\\xa5\\xe9\\x94\\x99\\xe6\\x8e\\xa7\\xe5\\x88\\xb6.sol\":963:986  MyError(msg.sender, _i) */\n      mload(0x40)\n      0xe2399bb800000000000000000000000000000000000000000000000000000000\n      dup2\n      mstore\n      0x04\n      add\n      tag_35\n      swap3\n      swap2\n      swap1\n      tag_36\n      jump\t// in\n    tag_35:\n      mload(0x40)\n      dup1\n      swap2\n      sub\n      swap1\n      revert\n        /* \"solidity-learning-lab/13_\\xe6\\x8a\\xa5\\xe9\\x94\\x99\\xe6\\x8e\\xa7\\xe5\\x88\\xb6.sol\":929:997  if (_i > 10) {... */\n    tag_34:\n        /* \"solidity-learning-lab/13_\\xe6\\x8a\\xa5\\xe9\\x94\\x99\\xe6\\x8e\\xa7\\xe5\\x88\\xb6.sol\":870:1003  function testCustomError(uint256 _i) public view {... */\n      pop\n      jump\t// out\n        /* \"solidity-learning-lab/13_\\xe6\\x8a\\xa5\\xe9\\x94\\x99\\xe6\\x8e\\xa7\\xe5\\x88\\xb6.sol\":83:289  function testRequire(uint256 _i) public pure {... */\n    tag_23:\n        /* \"solidity-learning-lab/13_\\xe6\\x8a\\xa5\\xe9\\x94\\x99\\xe6\\x8e\\xa7\\xe5\\x88\\xb6.sol\":251:253  10 */\n      0x0a\n        /* \"solidity-learning-lab/13_\\xe6\\x8a\\xa5\\xe9\\x94\\x99\\xe6\\x8e\\xa7\\xe5\\x88\\xb6.sol\":245:247  _i */\n      dup2\n        /* \"solidity-learning-lab/13_\\xe6\\x8a\\xa5\\xe9\\x94\\x99\\xe6\\x8e\\xa7\\xe5\\x88\\xb6.sol\":245:253  _i <= 10 */\n      gt\n      iszero\n        /* \"solidity-learning-lab/13_\\xe6\\x8a\\xa5\\xe9\\x94\\x99\\xe6\\x8e\\xa7\\xe5\\x88\\xb6.sol\":237:262  require(_i <= 10, \"i>10\") */\n      tag_38\n      jumpi\n      mload(0x40)\n      0x08c379a000000000000000000000000000000000000000000000000000000000\n      dup2\n      mstore\n      0x04\n      add\n      tag_39\n      swap1\n      tag_28\n      jump\t// in\n    tag_39:\n      mload(0x40)\n      dup1\n      swap2\n      sub\n      swap1\n      revert\n    tag_38:\n        /* \"solidity-learning-lab/13_\\xe6\\x8a\\xa5\\xe9\\x94\\x99\\xe6\\x8e\\xa7\\xe5\\x88\\xb6.sol\":83:289  function testRequire(uint256 _i) public pure {... */\n      pop\n      jump\t// out\n        /* \"#utility.yul\":88:205   */\n    tag_41:\n        /* \"#utility.yul\":197:198   */\n      0x00\n        /* \"#utility.yul\":194:195   */\n      0x00\n        /* \"#utility.yul\":187:199   */\n      revert\n        /* \"#utility.yul\":334:411   */\n    tag_43:\n        /* \"#utility.yul\":371:378   */\n      0x00\n        /* \"#utility.yul\":400:405   */\n      dup2\n        /* \"#utility.yul\":389:405   */\n      swap1\n      pop\n        /* \"#utility.yul\":334:411   */\n      swap2\n      swap1\n      pop\n      jump\t// out\n        /* \"#utility.yul\":417:539   */\n    tag_44:\n        /* \"#utility.yul\":490:514   */\n      tag_59\n        /* \"#utility.yul\":508:513   */\n      dup2\n        /* \"#utility.yul\":490:514   */\n      tag_43\n      jump\t// in\n    tag_59:\n        /* \"#utility.yul\":483:488   */\n      dup2\n        /* \"#utility.yul\":480:515   */\n      eq\n        /* \"#utility.yul\":470:533   */\n      tag_60\n      jumpi\n        /* \"#utility.yul\":529:530   */\n      0x00\n        /* \"#utility.yul\":526:527   */\n      0x00\n        /* \"#utility.yul\":519:531   */\n      revert\n        /* \"#utility.yul\":470:533   */\n    tag_60:\n        /* \"#utility.yul\":417:539   */\n      pop\n      jump\t// out\n        /* \"#utility.yul\":545:684   */\n    tag_45:\n        /* \"#utility.yul\":591:596   */\n      0x00\n        /* \"#utility.yul\":629:635   */\n      dup2\n        /* \"#utility.yul\":616:636   */\n      calldataload\n        /* \"#utility.yul\":607:636   */\n      swap1\n      pop\n        /* \"#utility.yul\":645:678   */\n      tag_62\n        /* \"#utility.yul\":672:677   */\n      dup2\n        /* \"#utility.yul\":645:678   */\n      tag_44\n      jump\t// in\n    tag_62:\n        /* \"#utility.yul\":545:684   */\n      swap3\n      swap2\n      pop\n      pop\n      jump\t// out\n        /* \"#utility.yul\":690:1019   */\n    tag_10:\n        /* \"#utility.yul\":749:755   */\n      0x00\n        /* \"#utility.yul\":798:800   */\n      0x20\n        /* \"#utility.yul\":786:795   */\n      dup3\n        /* \"#utility.yul\":777:784   */\n      dup5\n        /* \"#utility.yul\":773:796   */\n      sub\n        /* \"#utility.yul\":769:801   */\n      slt\n        /* \"#utility.yul\":766:885   */\n      iszero\n      tag_64\n      jumpi\n        /* \"#utility.yul\":804:883   */\n      tag_65\n      tag_41\n      jump\t// in\n    tag_65:\n        /* \"#utility.yul\":766:885   */\n    tag_64:\n        /* \"#utility.yul\":924:925   */\n      0x00\n        /* \"#utility.yul\":949:1002   */\n      tag_66\n        /* \"#utility.yul\":994:1001   */\n      dup5\n        /* \"#utility.yul\":985:991   */\n      dup3\n        /* \"#utility.yul\":974:983   */\n      dup6\n        /* \"#utility.yul\":970:992   */\n      add\n        /* \"#utility.yul\":949:1002   */\n      tag_45\n      jump\t// in\n    tag_66:\n        /* \"#utility.yul\":939:1002   */\n      swap2\n      pop\n        /* \"#utility.yul\":895:1012   */\n      pop\n        /* \"#utility.yul\":690:1019   */\n      swap3\n      swap2\n      pop\n      pop\n      jump\t// out\n        /* \"#utility.yul\":1025:1143   */\n    tag_46:\n        /* \"#utility.yul\":1112:1136   */\n      tag_68\n        /* \"#utility.yul\":1130:1135   */\n      dup2\n        /* \"#utility.yul\":1112:1136   */\n      tag_43\n      jump\t// in\n    tag_68:\n        /* \"#utility.yul\":1107:1110   */\n      dup3\n        /* \"#utility.yul\":1100:1137   */\n      mstore\n        /* \"#utility.yul\":1025:1143   */\n      pop\n      pop\n      jump\t// out\n        /* \"#utility.yul\":1149:1371   */\n    tag_17:\n        /* \"#utility.yul\":1242:1246   */\n      0x00\n        /* \"#utility.yul\":1280:1282   */\n      0x20\n        /* \"#utility.yul\":1269:1278   */\n      dup3\n        /* \"#utility.yul\":1265:1283   */\n      add\n        /* \"#utility.yul\":1257:1283   */\n      swap1\n      pop\n        /* \"#utility.yul\":1293:1364   */\n      tag_70\n        /* \"#utility.yul\":1361:1362   */\n      0x00\n        /* \"#utility.yul\":1350:1359   */\n      dup4\n        /* \"#utility.yul\":1346:1363   */\n      add\n        /* \"#utility.yul\":1337:1343   */\n      dup5\n        /* \"#utility.yul\":1293:1364   */\n      tag_46\n      jump\t// in\n    tag_70:\n        /* \"#utility.yul\":1149:1371   */\n      swap3\n      swap2\n      pop\n      pop\n      jump\t// out\n        /* \"#utility.yul\":1377:1546   */\n    tag_47:\n        /* \"#utility.yul\":1461:1472   */\n      0x00\n        /* \"#utility.yul\":1495:1501   */\n      dup3\n        /* \"#utility.yul\":1490:1493   */\n      dup3\n        /* \"#utility.yul\":1483:1502   */\n      mstore\n        /* \"#utility.yul\":1535:1539   */\n      0x20\n        /* \"#utility.yul\":1530:1533   */\n      dup3\n        /* \"#utility.yul\":1526:1540   */\n      add\n        /* \"#utility.yul\":1511:1540   */\n      swap1\n      pop\n        /* \"#utility.yul\":1377:1546   */\n      swap3\n      swap2\n      pop\n      pop\n      jump\t// out\n        /* \"#utility.yul\":1552:1706   */\n    tag_48:\n        /* \"#utility.yul\":1692:1698   */\n      0x693e313000000000000000000000000000000000000000000000000000000000\n        /* \"#utility.yul\":1688:1689   */\n      0x00\n        /* \"#utility.yul\":1680:1686   */\n      dup3\n        /* \"#utility.yul\":1676:1690   */\n      add\n        /* \"#utility.yul\":1669:1699   */\n      mstore\n        /* \"#utility.yul\":1552:1706   */\n      pop\n      jump\t// out\n        /* \"#utility.yul\":1712:2077   */\n    tag_49:\n        /* \"#utility.yul\":1854:1857   */\n      0x00\n        /* \"#utility.yul\":1875:1941   */\n      tag_74\n        /* \"#utility.yul\":1939:1940   */\n      0x04\n        /* \"#utility.yul\":1934:1937   */\n      dup4\n        /* \"#utility.yul\":1875:1941   */\n      tag_47\n      jump\t// in\n    tag_74:\n        /* \"#utility.yul\":1868:1941   */\n      swap2\n      pop\n        /* \"#utility.yul\":1950:2043   */\n      tag_75\n        /* \"#utility.yul\":2039:2042   */\n      dup3\n        /* \"#utility.yul\":1950:2043   */\n      tag_48\n      jump\t// in\n    tag_75:\n        /* \"#utility.yul\":2068:2070   */\n      0x20\n        /* \"#utility.yul\":2063:2066   */\n      dup3\n        /* \"#utility.yul\":2059:2071   */\n      add\n        /* \"#utility.yul\":2052:2071   */\n      swap1\n      pop\n        /* \"#utility.yul\":1712:2077   */\n      swap2\n      swap1\n      pop\n      jump\t// out\n        /* \"#utility.yul\":2083:2502   */\n    tag_28:\n        /* \"#utility.yul\":2249:2253   */\n      0x00\n        /* \"#utility.yul\":2287:2289   */\n      0x20\n        /* \"#utility.yul\":2276:2285   */\n      dup3\n        /* \"#utility.yul\":2272:2290   */\n      add\n        /* \"#utility.yul\":2264:2290   */\n      swap1\n      pop\n        /* \"#utility.yul\":2336:2345   */\n      dup2\n        /* \"#utility.yul\":2330:2334   */\n      dup2\n        /* \"#utility.yul\":2326:2346   */\n      sub\n        /* \"#utility.yul\":2322:2323   */\n      0x00\n        /* \"#utility.yul\":2311:2320   */\n      dup4\n        /* \"#utility.yul\":2307:2324   */\n      add\n        /* \"#utility.yul\":2300:2347   */\n      mstore\n        /* \"#utility.yul\":2364:2495   */\n      tag_77\n        /* \"#utility.yul\":2490:2494   */\n      dup2\n        /* \"#utility.yul\":2364:2495   */\n      tag_49\n      jump\t// in\n    tag_77:\n        /* \"#utility.yul\":2356:2495   */\n      swap1\n      pop\n        /* \"#utility.yul\":2083:2502   */\n      swap2\n      swap1\n      pop\n      jump\t// out\n        /* \"#utility.yul\":2508:2688   */\n    tag_32:\n        /* \"#utility.yul\":2556:2633   */\n      0x4e487b7100000000000000000000000000000000000000000000000000000000\n        /* \"#utility.yul\":2553:2554   */\n      0x00\n        /* \"#utility.yul\":2546:2634   */\n      mstore\n        /* \"#utility.yul\":2653:2657   */\n      0x01\n        /* \"#utility.yul\":2650:2651   */\n      0x04\n        /* \"#utility.yul\":2643:2658   */\n      mstore\n        /* \"#utility.yul\":2677:2681   */\n      0x24\n        /* \"#utility.yul\":2674:2675   */\n      0x00\n        /* \"#utility.yul\":2667:2682   */\n      revert\n        /* \"#utility.yul\":2694:2820   */\n    tag_50:\n        /* \"#utility.yul\":2731:2738   */\n      0x00\n        /* \"#utility.yul\":2771:2813   */\n      0xffffffffffffffffffffffffffffffffffffffff\n        /* \"#utility.yul\":2764:2769   */\n      dup3\n        /* \"#utility.yul\":2760:2814   */\n      and\n        /* \"#utility.yul\":2749:2814   */\n      swap1\n      pop\n        /* \"#utility.yul\":2694:2820   */\n      swap2\n      swap1\n      pop\n      jump\t// out\n        /* \"#utility.yul\":2826:2922   */\n    tag_51:\n        /* \"#utility.yul\":2863:2870   */\n      0x00\n        /* \"#utility.yul\":2892:2916   */\n      tag_81\n        /* \"#utility.yul\":2910:2915   */\n      dup3\n        /* \"#utility.yul\":2892:2916   */\n      tag_50\n      jump\t// in\n    tag_81:\n        /* \"#utility.yul\":2881:2916   */\n      swap1\n      pop\n        /* \"#utility.yul\":2826:2922   */\n      swap2\n      swap1\n      pop\n      jump\t// out\n        /* \"#utility.yul\":2928:3046   */\n    tag_52:\n        /* \"#utility.yul\":3015:3039   */\n      tag_83\n        /* \"#utility.yul\":3033:3038   */\n      dup2\n        /* \"#utility.yul\":3015:3039   */\n      tag_51\n      jump\t// in\n    tag_83:\n        /* \"#utility.yul\":3010:3013   */\n      dup3\n        /* \"#utility.yul\":3003:3040   */\n      mstore\n        /* \"#utility.yul\":2928:3046   */\n      pop\n      pop\n      jump\t// out\n        /* \"#utility.yul\":3052:3384   */\n    tag_36:\n        /* \"#utility.yul\":3173:3177   */\n      0x00\n        /* \"#utility.yul\":3211:3213   */\n      0x40\n        /* \"#utility.yul\":3200:3209   */\n      dup3\n        /* \"#utility.yul\":3196:3214   */\n      add\n        /* \"#utility.yul\":3188:3214   */\n      swap1\n      pop\n        /* \"#utility.yul\":3224:3295   */\n      tag_85\n        /* \"#utility.yul\":3292:3293   */\n      0x00\n        /* \"#utility.yul\":3281:3290   */\n      dup4\n        /* \"#utility.yul\":3277:3294   */\n      add\n        /* \"#utility.yul\":3268:3274   */\n      dup6\n        /* \"#utility.yul\":3224:3295   */\n      tag_52\n      jump\t// in\n    tag_85:\n        /* \"#utility.yul\":3305:3377   */\n      tag_86\n        /* \"#utility.yul\":3373:3375   */\n      0x20\n        /* \"#utility.yul\":3362:3371   */\n      dup4\n        /* \"#utility.yul\":3358:3376   */\n      add\n        /* \"#utility.yul\":3349:3355   */\n      dup5\n        /* \"#utility.yul\":3305:3377   */\n      tag_46\n      jump\t// in\n    tag_86:\n        /* \"#utility.yul\":3052:3384   */\n      swap4\n      swap3\n      pop\n      pop\n      pop\n      jump\t// out\n\n    auxdata: 0xa264697066735822122078fd87199170376930aa395ac9235474c6749c20b6435829827a3c20baeed29c64736f6c634300081e0033\n}\n",
				"bytecode": {
					"linkReferences": {},
					"object": "6080604052607b5f553480156012575f5ffd5b5061039c806100205f395ff3fe608060405234801561000f575f5ffd5b5060043610610055575f3560e01c806320987767146100595780632b813bc0146100755780634e70b1dc1461007f57806375f7286c1461009d578063b8bd717f146100b9575b5f5ffd5b610073600480360381019061006e9190610208565b6100d5565b005b61007d610126565b005b61008761013a565b6040516100949190610242565b60405180910390f35b6100b760048036038101906100b29190610208565b61013f565b005b6100d360048036038101906100ce9190610208565b61018a565b005b600181111561012357600a811115610122576040517f08c379a0000000000000000000000000000000000000000000000000000000008152600401610119906102b5565b60405180910390fd5b5b50565b607b5f5414610138576101376102d3565b5b565b5f5481565b600a8111156101875733816040517fe2399bb800000000000000000000000000000000000000000000000000000000815260040161017e92919061033f565b60405180910390fd5b50565b600a8111156101ce576040517f08c379a00000000000000000000000000000000000000000000000000000000081526004016101c5906102b5565b60405180910390fd5b50565b5f5ffd5b5f819050919050565b6101e7816101d5565b81146101f1575f5ffd5b50565b5f81359050610202816101de565b92915050565b5f6020828403121561021d5761021c6101d1565b5b5f61022a848285016101f4565b91505092915050565b61023c816101d5565b82525050565b5f6020820190506102555f830184610233565b92915050565b5f82825260208201905092915050565b7f693e3130000000000000000000000000000000000000000000000000000000005f82015250565b5f61029f60048361025b565b91506102aa8261026b565b602082019050919050565b5f6020820190508181035f8301526102cc81610293565b9050919050565b7f4e487b71000000000000000000000000000000000000000000000000000000005f52600160045260245ffd5b5f73ffffffffffffffffffffffffffffffffffffffff82169050919050565b5f61032982610300565b9050919050565b6103398161031f565b82525050565b5f6040820190506103525f830185610330565b61035f6020830184610233565b939250505056fea264697066735822122078fd87199170376930aa395ac9235474c6749c20b6435829827a3c20baeed29c64736f6c634300081e0033",
					"opcodes": "PUSH1 0x80 PUSH1 0x40 MSTORE PUSH1 0x7B PUSH0 SSTORE CALLVALUE DUP1 ISZERO PUSH1 0x12 JUMPI PUSH0 PUSH0 REVERT JUMPDEST POP PUSH2 0x39C DUP1 PUSH2 0x20 PUSH0 CODECOPY PUSH0 RETURN INVALID PUSH1 0x80 PUSH1 0x40 MSTORE CALLVALUE DUP1 ISZERO PUSH2 0xF JUMPI PUSH0 PUSH0 REVERT JUMPDEST POP PUSH1 0x4 CALLDATASIZE LT PUSH2 0x55 JUMPI PUSH0 CALLDATALOAD PUSH1 0xE0 SHR DUP1 PUSH4 0x20987767 EQ PUSH2 0x59 JUMPI DUP1 PUSH4 0x2B813BC0 EQ PUSH2 0x75 JUMPI DUP1 PUSH4 0x4E70B1DC EQ PUSH2 0x7F JUMPI DUP1 PUSH4 0x75F7286C EQ PUSH2 0x9D JUMPI DUP1 PUSH4 0xB8BD717F EQ PUSH2 0xB9 JUMPI JUMPDEST PUSH0 PUSH0 REVERT JUMPDEST PUSH2 0x73 PUSH1 0x4 DUP1 CALLDATASIZE SUB DUP2 ADD SWAP1 PUSH2 0x6E SWAP2 SWAP1 PUSH2 0x208 JUMP JUMPDEST PUSH2 0xD5 JUMP JUMPDEST STOP JUMPDEST PUSH2 0x7D PUSH2 0x126 JUMP JUMPDEST STOP JUMPDEST PUSH2 0x87 PUSH2 0x13A JUMP JUMPDEST PUSH1 0x40 MLOAD PUSH2 0x94 SWAP2 SWAP1 PUSH2 0x242 JUMP JUMPDEST PUSH1 0x40 MLOAD DUP1 SWAP2 SUB SWAP1 RETURN JUMPDEST PUSH2 0xB7 PUSH1 0x4 DUP1 CALLDATASIZE SUB DUP2 ADD SWAP1 PUSH2 0xB2 SWAP2 SWAP1 PUSH2 0x208 JUMP JUMPDEST PUSH2 0x13F JUMP JUMPDEST STOP JUMPDEST PUSH2 0xD3 PUSH1 0x4 DUP1 CALLDATASIZE SUB DUP2 ADD SWAP1 PUSH2 0xCE SWAP2 SWAP1 PUSH2 0x208 JUMP JUMPDEST PUSH2 0x18A JUMP JUMPDEST STOP JUMPDEST PUSH1 0x1 DUP2 GT ISZERO PUSH2 0x123 JUMPI PUSH1 0xA DUP2 GT ISZERO PUSH2 0x122 JUMPI PUSH1 0x40 MLOAD PUSH32 0x8C379A000000000000000000000000000000000000000000000000000000000 DUP2 MSTORE PUSH1 0x4 ADD PUSH2 0x119 SWAP1 PUSH2 0x2B5 JUMP JUMPDEST PUSH1 0x40 MLOAD DUP1 SWAP2 SUB SWAP1 REVERT JUMPDEST JUMPDEST POP JUMP JUMPDEST PUSH1 0x7B PUSH0 SLOAD EQ PUSH2 0x138 JUMPI PUSH2 0x137 PUSH2 0x2D3 JUMP JUMPDEST JUMPDEST JUMP JUMPDEST PUSH0 SLOAD DUP2 JUMP JUMPDEST PUSH1 0xA DUP2 GT ISZERO PUSH2 0x187 JUMPI CALLER DUP2 PUSH1 0x40 MLOAD PUSH32 0xE2399BB800000000000000000000000000000000000000000000000000000000 DUP2 MSTORE PUSH1 0x4 ADD PUSH2 0x17E SWAP3 SWAP2 SWAP1 PUSH2 0x33F JUMP JUMPDEST PUSH1 0x40 MLOAD DUP1 SWAP2 SUB SWAP1 REVERT JUMPDEST POP JUMP JUMPDEST PUSH1 0xA DUP2 GT ISZERO PUSH2 0x1CE JUMPI PUSH1 0x40 MLOAD PUSH32 0x8C379A000000000000000000000000000000000000000000000000000000000 DUP2 MSTORE PUSH1 0x4 ADD PUSH2 0x1C5 SWAP1 PUSH2 0x2B5 JUMP JUMPDEST PUSH1 0x40 MLOAD DUP1 SWAP2 SUB SWAP1 REVERT JUMPDEST POP JUMP JUMPDEST PUSH0 PUSH0 REVERT JUMPDEST PUSH0 DUP2 SWAP1 POP SWAP2 SWAP1 POP JUMP JUMPDEST PUSH2 0x1E7 DUP2 PUSH2 0x1D5 JUMP JUMPDEST DUP2 EQ PUSH2 0x1F1 JUMPI PUSH0 PUSH0 REVERT JUMPDEST POP JUMP JUMPDEST PUSH0 DUP2 CALLDATALOAD SWAP1 POP PUSH2 0x202 DUP2 PUSH2 0x1DE JUMP JUMPDEST SWAP3 SWAP2 POP POP JUMP JUMPDEST PUSH0 PUSH1 0x20 DUP3 DUP5 SUB SLT ISZERO PUSH2 0x21D JUMPI PUSH2 0x21C PUSH2 0x1D1 JUMP JUMPDEST JUMPDEST PUSH0 PUSH2 0x22A DUP5 DUP3 DUP6 ADD PUSH2 0x1F4 JUMP JUMPDEST SWAP2 POP POP SWAP3 SWAP2 POP POP JUMP JUMPDEST PUSH2 0x23C DUP2 PUSH2 0x1D5 JUMP JUMPDEST DUP3 MSTORE POP POP JUMP JUMPDEST PUSH0 PUSH1 0x20 DUP3 ADD SWAP1 POP PUSH2 0x255 PUSH0 DUP4 ADD DUP5 PUSH2 0x233 JUMP JUMPDEST SWAP3 SWAP2 POP POP JUMP JUMPDEST PUSH0 DUP3 DUP3 MSTORE PUSH1 0x20 DUP3 ADD SWAP1 POP SWAP3 SWAP2 POP POP JUMP JUMPDEST PUSH32 0x693E313000000000000000000000000000000000000000000000000000000000 PUSH0 DUP3 ADD MSTORE POP JUMP JUMPDEST PUSH0 PUSH2 0x29F PUSH1 0x4 DUP4 PUSH2 0x25B JUMP JUMPDEST SWAP2 POP PUSH2 0x2AA DUP3 PUSH2 0x26B JUMP JUMPDEST PUSH1 0x20 DUP3 ADD SWAP1 POP SWAP2 SWAP1 POP JUMP JUMPDEST PUSH0 PUSH1 0x20 DUP3 ADD SWAP1 POP DUP2 DUP2 SUB PUSH0 DUP4 ADD MSTORE PUSH2 0x2CC DUP2 PUSH2 0x293 JUMP JUMPDEST SWAP1 POP SWAP2 SWAP1 POP JUMP JUMPDEST PUSH32 0x4E487B7100000000000000000000000000000000000000000000000000000000 PUSH0 MSTORE PUSH1 0x1 PUSH1 0x4 MSTORE PUSH1 0x24 PUSH0 REVERT JUMPDEST PUSH0 PUSH20 0xFFFFFFFFFFFFFFFFFFFFFFFFFFFFFFFFFFFFFFFF DUP3 AND SWAP1 POP SWAP2 SWAP1 POP JUMP JUMPDEST PUSH0 PUSH2 0x329 DUP3 PUSH2 0x300 JUMP JUMPDEST SWAP1 POP SWAP2 SWAP1 POP JUMP JUMPDEST PUSH2 0x339 DUP2 PUSH2 0x31F JUMP JUMPDEST DUP3 MSTORE POP POP JUMP JUMPDEST PUSH0 PUSH1 0x40 DUP3 ADD SWAP1 POP PUSH2 0x352 PUSH0 DUP4 ADD DUP6 PUSH2 0x330 JUMP JUMPDEST PUSH2 0x35F PUSH1 0x20 DUP4 ADD DUP5 PUSH2 0x233 JUMP JUMPDEST SWAP4 SWAP3 POP POP POP JUMP INVALID LOG2 PUSH5 0x6970667358 0x22 SLT KECCAK256 PUSH25 0xFD87199170376930AA395AC9235474C6749C20B6435829827A EXTCODECOPY KECCAK256 0xBA RETURNCONTRACT 0xD2 SWAP13 PUSH5 0x736F6C6343 STOP ADDMOD 0x1E STOP CALLER "
				},
				"gasEstimates": {
					"creation": {
						"codeDepositCost": "184800",
						"executionCost": "22329",
						"totalCost": "207129"
					},
					"external": {
						"num()": "2446",
						"testAssert()": "2292",
						"testCustomError(uint256)": "infinite",
						"testRequire(uint256)": "775",
						"testRevert(uint256)": "712"
					}
				},
				"methodIdentifiers": {
					"num()": "4e70b1dc",
					"testAssert()": "2b813bc0",
					"testCustomError(uint256)": "75f7286c",
					"testRequire(uint256)": "b8bd717f",
					"testRevert(uint256)": "20987767"
				}
			},
			"storageLayout": {
				"storage": [
					{
						"astId": 37,
						"contract": "solidity-learning-lab/13_报错控制.sol:ErrorDemo",
						"label": "num",
						"offset": 0,
						"slot": "0",
						"type": "t_uint256"
					}
				],
				"types": {
					"t_uint256": {
						"encoding": "inplace",
						"label": "uint256",
						"numberOfBytes": "32"
					}
				}
			},
			"userdoc": {
				"kind": "user",
				"methods": {},
				"version": 1
			}
		}
	}
}